:020000041000EA
:1000000000B5324B212058609868022188439860DF
:10001000D860186158612E4B002199600221596106
:100020000121F02299502B49196001219960352056
:1000300000F044F80222904214D00621196600F024
:1000400034F8196E01211966002018661A6600F04E
:100050002CF8196E196E196E052000F02FF8012189
:100060000842F9D1002199601B49196000215960AB
:100070001A491B48016001219960EB211966A021F2
:10008000196600F012F800219960164914480160C1
:100090000121996001BC002800D000471248134993
:1000A000086003C880F30888084703B5996A0420EC
:1000B0000142FBD001200142F8D103BD02B5186610
:1000C0001866FFF7F2FF186E186E02BD00000240BE
:1000D000000000180000070000035F00212200005C
:1000E000F4000018222000A00001001008ED00E03C
:1000F00000000000000000000000000074B24E7A12
:1001000000200420F7010010C3010010C5010010F9
:10011000C1010010C1010010C1010010C101001097
:10012000C1010010C1010010C1010010C701001081
:10013000C1010010C1010010C9010010CB01001065
:10014000CD010010CD010010CD010010CD01001037
:10015000CD010010CD010010CD010010CD01001027
:10016000CD010010CD010010CD010010CD01001017
:10017000CD010010CD010010CD010010CD01001007
:10018000CD010010CD010010CD010010CD010010F7
:10019000CD010010CD010010CD010010CD010010E7
:1001A000CD010010CD010010CD010010CD010010D7
:1001B000CD010010CD010010CD010010CD010010C7
:1001C00000BE00BE00BE00BE00BE00BE00F04BF888
:1001D000103800BEF2EB8871549000107C90001033
:1001E0003402001090A31AE700202149086006C8D5
:1001F00081F3088810471F48006800282FD10DA4FC
:100200000ECC002902D000F012F8F9E71A491B4A77
:10021000002000E001C19142FCD1194988471949E9
:1002200088471949884700BEFDE701C901C29A42C3
:10023000FBD370477C900010C0000020AC0B002066
:10024000689B00100000042000000420689B001040
:1002500000100420001004200000000070470B482C
:1002600004F0DCFA0047EFF30580C0B270470000ED
:1002700008ED00E0000000D0B00B0020A81D002019
:10028000112800108D06001031290010575600006B
:1002900006005250ABB36053188D00100600525048
:1002A000861C0302288D0010060052505422A29D85
:1002B000388D001005005250DE65F468689B001010
:1002C000F8B5C046044B10B5002B03D003490448D1
:1002D00000E000BF10BDC04600000000841A0020EE
:1002E000408A001010B5040000F0E6FE002800D19E
:1002F00010BD64212000024A00F090FFF8E7C046DC
:10030000E502001010B5040000F0D6FE002800D170
:1003100010BD0A212000024A00F080FFF8E7C04625
:10032000E5020010F0B5D6464F4646462C4B012458
:100330009A46C0B5186801F001FA2A4BD025186812
:10034000994601F0FBF9284B2D061868984601F0F4
:10035000F5F9264F386801F0F1F9254E306801F0C3
:10036000EDF9534622001B6801219A404B46AA62D0
:1003700022001B689A404346186823008340AA6203
:1003800022006B623B689A406A62220033689A409E
:100390006A6201F0C1F93868012101F0BDF93068E5
:1003A000012101F0B9F9534600221868012101F03A
:1003B000A1F94B4600221868012101F09BF9434640
:1003C00022001B689A406A6122003B689A403368A9
:1003D0006A619C406C61E0BCBA46B146A846F0BD7B
:1003E0003C02002038020020480200204402002085
:1003F0004002002010B50B4B022219780A4B1878E6
:1004000000F0E8FC094B0A4C19780A4B20600222E4
:10041000187800F0DFFC084B22681860074B186062
:100420005A6010BD4C0200204E0200204D020020F8
:10043000EC0E00204F020020E80E0020E013002008
:1004400070B50E4C0E4E0F4D2068012100F022FEBB
:100450003100206800F082FE2900206800F088FE4C
:10046000094C0121206800F015FE3100206800F0E1
:1004700075FE2900206800F07BFE70BDE80E0020AC
:1004800060EA0000983A0000EC0E0020F0B5CE467D
:100490004746FA2180B5764C83B02068C90000F049
:1004A00015FE0021206800F045FE0121206800F0C3
:1004B000F1FD0021206800F0DBFD6E4F64213A0061
:1004C000206800F0ABFE6C4BD021984601221868E2
:1004D00009064B681500C3401D401A42F9D100219E
:1004E000206800F0D7FDFA20400001F079FD0121DD
:1004F000206800F0CFFD6148266800F06FFEFA2109
:100500000300012230004900009500F055FD002154
:10051000206800F0ADFDFA212068490000F0D6FD0A
:10052000574E0A213200206800F078FE4346D02161
:100530000122186809064B68C3401A42FBD100210A
:10054000206800F0A7FDFA20400001F049FDFA21E3
:100550004C4DC900286800F0B9FD0021286800F062
:10056000E9FD0121286800F095FD0021286800F0D0
:100570007FFD3A006421286800F050FE424BD021F4
:1005800098460122186809064B681700C3401F40AF
:100590001A42F9D10021286800F07CFDFA204000C1
:1005A00001F01EFD0121286800F074FD2B6833481E
:1005B000994600F013FEFA21030001224900484643
:1005C000009700F0F9FC0021286800F051FDFA21A5
:1005D0002868490000F07AFD32000A21286800F0FE
:1005E0001DFE4346D0210122186809064B681600FB
:1005F000C3401E401A42F9D10021286800F04AFD8C
:10060000FA20400001F0ECFC0121206800F042FDDE
:100610001A48276800F0E2FD01220300FA213800A1
:10062000009600F0C9FC0121286800F033FD134852
:100630002F6800F0D3FD01220300FA213800009654
:1006400000F0BAFC2068012100F024FD20680021A0
:1006500000F07AFD2868012100F01CFD00212868C7
:1006600000F072FD03B0C0BCB946B046F0BDC04654
:10067000E80E0020E50200103C0200200000FA44D1
:1006800005030010EC0E002038020020F0B5D6461D
:100690004F464646C0B505F053FAFA20C00001F0B7
:1006A0009FFC32212E4805F03FFAFFF7A3FEFFF72B
:1006B000C7FEFFF737FEFFF7E9FEFFF7C1FE294B44
:1006C000294F9A46294B2A4C99462A4B98463B007B
:1006D0004746984653462849186800F02BFD4B467C
:1006E0002549186800F026FD9622012500235200B6
:1006F000226063602A003B68D0269A4036062100BB
:10070000B2614046022200F003FE96229623520078
:100710005B00226063602A003B6821009A404046EB
:100720007261022200F0F4FD962300225B00226039
:1007300063602A003B6821009A404046B261022271
:1007400000F0E6FD00220023226063603B68210088
:100750009D4040467561023200F0DAFDBAE7C046BE
:10076000408A0010E80E0020E0130020EC0E00206C
:10077000E00C002040020020400D030070B5040092
:1007800008200D0004F092FF23684560036020609C
:1007900070BDC0460300006810B5002806D002688E
:1007A00044681A6004F0A0FF200010BD01246442D8
:1007B000FAE7C046A022F8B54746CE46114BD2050F
:1007C000D65880B5D650104B0024994600230127F7
:1007D00098460E4DA9443B00A3401E420AD0424613
:1007E0002868C3001B18DB004B445A719B6C002B1C
:1007F00000D09847013404350F2CECD1C0BCB94669
:10080000B046F8BD0C040000B4FDFFFFF81C00204A
:10081000F0B55746DE464E464546E0B5A74FA84CD4
:100820003B7883B0002B00D01BE108228826802073
:10083000012501212260A34A4004A2510436A3519C
:100840000436A3510436A0510436A3510436A351F3
:100850000836A3511836A55149420836A1510C3625
:10086000A2510436A3510436A3510436A0510436D4
:10087000A3510436A3510836A35118366060A36013
:10088000E3606361616322646364A364E06423657D
:100890006365E365E167E5626567A5510836A151C7
:1008A0000C36A2510436A3510436A3510436A0518C
:1008B0000436A3510436A3510836A3511836A55166
:1008C0000836A1510C36A2510436A3510436A35167
:1008D0000436A0510436A3510436A3510836A3515F
:1008E0001836A5510836A1510C36A2510436A35131
:1008F0000436A3510436A0510436A3510436A35143
:100900000836A3511836A5510836A1510C36A2510C
:100910000436A3510436A3514C36A3510436A351D7
:100920004C3EA051802080002350043023500830DA
:10093000235018302550083021508E2189006250F4
:100940008F229200A3500432A35098469323C13AB9
:100950009B003A39E018FF3AFF3904F0DDFE4346C8
:10096000DEB23D70002E00D1A4E0574BE25C0823BC
:10097000002A00D1A0E0554AA25C002A2ED0032B09
:1009800021D0534AA25C002A00D18BE0042B1AD05C
:1009900092229200A25C002A00D185E0052B12D0A1
:1009A0004C4AA25C002A00D180E0062B0BD04A4AB8
:1009B000A25C002A00D17BE0072B04D0474B07271D
:1009C000E35C002B0BD001235B429946484603B001
:1009D000F0BCBB46B246A946A046F0BD02270021A6
:1009E0003F4807F0E9F9B9460600431C4BD0002305
:1009F0009A463B4B01909B46012007F003FB0123E5
:100A00001A0082409846374B05001A600B20364981
:100A100002F0D6F901210B2002F0B0F991222B004F
:100A2000920094464246594692339B00E3185F6019
:100A3000E31963441A70FB00DB19DB00E218116351
:100A4000514651632949D563ED020D4001999663E2
:100A5000C9030D4309210D43156442460434E25293
:100A6000B4E72368002BAED091229200A25C002A4A
:100A700020D0012BA7D0144AA25C002A1CD0022B44
:100A800000D078E79FE70121194807F095F908237E
:100A90009C4684446346019301239A46144B060006
:100AA0009B46A9E703279AE7042798E7052796E7D7
:100AB000062794E7002792E7012790E7A51D00206D
:100AC000AC1A002019801F004502000046020000F9
:100AD00047020000490200004A0200004B020000E9
:100AE0000000205004240050B5070010FF7F00FFD5
:100AF00000003050F0B5CE4600B584B00390039AA4
:100B0000774FD3009B18DB00FB181B69002B18D014
:100B1000039AD3009B18DB00FB189B69002B10D0B5
:100B2000039AD3009B18DB00FB181B69039A002B68
:100B300000DA9FE0D3009B18DB00FB181B69002B39
:100B400003DC04B080BCB946F0BD039A0026D30094
:100B50009B18DB00FB18DB6A1800994604F084F947
:100B60000022604B04F00FF900225F4B04F002F901
:100B700002000B0000205D4904F005F904F08CF937
:100B800004F06EF9039A0400D3009B18DB00FB18F5
:100B900098690D0004F064F922002B000090019187
:100BA0000020534904F0EFF802000B00009801996F
:100BB00004F0F2F822002B0004F0DCF804F090F9C5
:100BC00004F0E3FC04F008FD02000B00002049499A
:100BD00004F0D9F80022434B04F0C3F800220023AC
:100BE00004000D0004F028F9002804D0200029009A
:100BF00004F052F90600B14501D14B465E1E039A3E
:100C0000D3009B18DB00FB18D86904F0BEFC04F08D
:100C1000E3FC02000B000020364904F0B4F8002287
:100C2000304B04F09EF80022002304000D0004F075
:100C300003F900283BD02000290004F02DF93400EE
:100C4000864237D3864237D8039AD3009B18DB00FD
:100C5000FB185A6A01325A62039AD3009B18DB00D0
:100C6000FB18DA79DC62640014439A796400144357
:100C70005C6466E7D3009B18DB00FB185A6A511EC0
:100C80005962002A22DD039AD3009B18DB00FB186F
:100C9000D86A039AD3009B18DB00FB18DA79D86274
:100CA00040009979024352000A435A6449E73400EC
:100CB0000020C7E70400C5E7039B4946D800C018D9
:100CC000C00028303818FFF759FDC5E7039BD8004E
:100CD000C018C00028303818FFF75CFDD9E7C046BF
:100CE000AC1A0020000024400000F03F006AF840E9
:100CF0000000494080842E41F0B55746DE46C500CD
:100D000080B52F4E2B18DB00F318DC6A07008A46EB
:100D1000934683B0002C1FD1186A04F036FC04F00F
:100D20005BFC02000B000020264904F02CF8002296
:100D3000254B04F016F8002200230090019104F0E6
:100D40007BF8002804D00098019904F0A5F804006D
:100D5000EB19DB00F318DC625B46EC19E400341994
:100D6000A26B616BA364920000291DD1174BA020D8
:100D70009C46C00562448446E36B9B016344196052
:100D80005A6052469A60226CED19ED001A612A00F1
:100D90004432B218DA630120012275196A7103B076
:100DA000C0BCBB46B246F0BD094BA0219C46C9055C
:100DB00062448C46E36B00219B016344DFE7C0463D
:100DC000AC1A002080842E410000244010002050E6
:100DD00010003050F0B5D6464F464646C0B58AB0F2
:100DE00005000E00FFF714FD0700B5426ED9C300E1
:100DF0006B4C1B18DB00E4186A49206B06F0FAFF05
:100E0000A36B8022994600230593F82352025B02CC
:100E100002920393C0238246256B02AC1B0310226F
:100E2000210006A8049304F07DFC534652460D337E
:100E3000D2011B03134306A910222000079304F0DC
:100E400071FCFA23DB030293574B30000493574B9A
:100E5000EB185A1E934106339846190000F032FCF5
:100E60004146701C00F02EFC012332009846494692
:100E700028000093013307F035F8710180264B46B6
:100E80003605B4465B004B44DB00EB18DC331A68D4
:100E9000474802400A4332431A606346059E524661
:100EA00006400E431E43494623002800059607F0DE
:100EB0005BF8434649468B402A6813432B60380051
:100EC0000AB0E0BCBA46B146A846F0BDC300344CF7
:100ED0001B18DB00E4183749206B06F08BFFA36B6F
:100EE0008022994600230593F82352025B02029266
:100EF0000393C0238246266B02AC1B031022210001
:100F000006A8049304F00EFC534652460D33D2015A
:100F10001B03134306A910222000079304F002FCD0
:100F2000FA23DB030293204B280004931F4BF31892
:100F30005A1E934106339846190000F0C3FB414600
:100F4000681C00F0BFFB01232A0098464946300088
:100F50000093013306F0C6FF690180254B462D053D
:100F6000AC465B004B44DB00F318DC331A681048D6
:100F700002400A432A431A606346059D52460540D3
:100F80000D431D43494623003000059506F0ECFF54
:100F9000434649468B403268134333608FE7C0466F
:100FA000AC1A0020688A001000000C400000E0AF7E
:100FB0001FFCFFE3448A0010F0B5DE4657464E465C
:100FC0004546844610008022E0B5D20583B09342A6
:100FD00044D26246013241D06246244CD200A0463F
:100FE00092466244D200424400945479002C35D198
:100FF000146B966B002921D0320001255F0001237C
:10100000103295400C9A9946331D52009B00904631
:101010009B4603000022080041469846019646463A
:101020004B463E4376001E4363681D42FCD15B463F
:1010300001321E517F189042F1D1019E01221836D3
:10104000B24063681A42FCD05346009A6344944607
:101050000022DB00634401205A7100E0002003B04D
:10106000F0BCBB46B246A946A046F0BDAC1A002073
:1010700010B50C00C200064B1218D2009A18D1719C
:10108000D16A93794900214349001943516410BD45
:10109000AC1A002010B50C00C200064B1218D2008A
:1010A0009A189171D16AD3794900194349002143B3
:1010B000516410BDAC1A0020C200034B1218D200BC
:1010C0009B1898797047C046AC1A0020D0B5040030
:1010D000080004F05AFA04F07FFA02000B00002026
:1010E000114903F050FE0022104B03F03AFE00229B
:1010F000002306000F0003F09FFE002811D03900E6
:10110000300003F0C9FE4100E200094B1219D20081
:101110009B18DA79D8620A43997952000A435A64D3
:10112000D0BD00210020EFE780842E410000244044
:10113000AC1A0020C200034B1218D2009B18596150
:101140007047C046AC1A0020C200034B1218D200F0
:101150009B18D9607047C046AC1A0020C200034BF0
:101160001218D2009B18D9617047C046AC1A0020F3
:10117000F0B5C64680464346DC00154DE318DB005B
:10118000EB1800B50800196204F0FFF904F024FA26
:1011900002000B0000200F4903F0F5FD00220E4B6A
:1011A00003F0DFFD0022002306000F0003F044FEE1
:1011B00000280AD03000390003F06EFE4444E400F9
:1011C0002D19E86280BCB846F0BD0020F6E7C046A5
:1011D000AC1A002080842E410000244070B504F039
:1011E000FBF902000B0000200A4903F0CCFD0022AD
:1011F000094B03F0B6FD0022002304000D0003F0AC
:101200001BFE002804D02000290003F045FE70BD1D
:101210000020FCE780842E4100002440F0B54646C3
:101220004F46D646C500C0B52B18344EDB00F31828
:1012300017005A790400884682B0002A50D11A79E2
:101240009146002A45D0DA6A9246002A20D1186ACF
:1012500004F09BF904F0C0F902000B0000202849BB
:1012600003F091FD0022274B03F07BFD00220023B9
:101270000090019103F0E0FD002804D0009801994E
:1012800003F00AFE824652462B19DB00F318DA629D
:101290002B19DB00F318996B586B9F6489000028A9
:1012A00021D1194AA0279446FF056144BC46DA6B58
:1012B0009201624410605160414691601B6C2D198F
:1012C000ED0013612B004433F318D3630123761927
:1012D0007371484602B0E0BCBA46B146A846F0BDBC
:1012E00000239946F5E7094AA0209446C0056144C9
:1012F0008446DA6B002092016244DBE7AC1A0020DE
:1013000080842E41000024401000205010003050F6
:10131000F0B55746DE464E464546E0B58DB0150061
:10132000D31D6A46DB08DB00D31A00AF9D466A4630
:10133000AB00BB600733DB08DB00D21AEA469546F8
:101340008346D31A68469D465B466E461A68CD4C66
:10135000D3009B18DB00E3185B69F8603E617B6299
:10136000002D00D184E100239C465B467B61002375
:1013700099465B467B606346AB46F86125000020DA
:10138000B9613E62BB627B69BC6A1E183268D300D9
:101390009B18BA69DB001258EB189446DB68D11A27
:1013A000CA1763459B418918514052465B42135509
:1013B000FA69644611503A6A115032689046D20078
:1013C0004244D200AA18D46032689446D2006244E3
:1013D000D200AA18D46AD3716400234394795B00C5
:1013E000234353643268D3009B18DB00EB185B691E
:1013F0007A6A9A4200D97B62894500D28946BB6AE3
:1014000004300133BB629B45BDD14B467A6818005E
:10141000FB6164211E002C005D46934603F05CFADC
:1014200032213862300003F057FAB861300003F01F
:1014300017FDFA68BB6892467A612A005B445546FC
:10144000A04699465C469246B862F962226801CD90
:10145000D3009B180122DB0043441A6108CCDE0054
:10146000F6187B6AF600584303F0FAFCBA6AFB6A86
:1014700003F089FC03F034FD4644B061A145E5D199
:10148000F9687A698C4644469046BA684646624492
:10149000D046A2461400BD693068290003F01CFA4A
:1014A00001C6B442F8D1FA6945464B465446632A10
:1014B00000D803E100221000002D00D1E6E0724ABE
:1014C000BD629246FA6881469046190025004B4657
:1014D0005C46002689467B622068C3001B18DB003F
:1014E000EB185A79002A08D11B79002B05D0424607
:1014F000B300D1585246FFF7FFFBBB6A01360434F4
:101500009E42E9D17B6A4946584699460268D30013
:101510009B18DB00EB185B79002BF7D1043081427C
:10152000F4D101339C463B6AE1444B45CFD80B00D4
:101530002C00BD6A01205946404240C9F200921970
:10154000D200A21810618B42F7D13A6A002A41D02A
:1015500000221100002D00D1A3E04B4A894692469B
:10156000FA68BD629046190025004B465C4600268D
:1015700089467B622068C3001B18DB00EB185A7990
:10158000002A08D11B79002B05D04246B300D15860
:101590005246FFF7B1FBBB6A013604349E42E9D1E3
:1015A0007B6A4946584699460268D3009B18DB007F
:1015B000EB185B79002BF7D104308142F4D1013371
:1015C0009C463B6AE1444B45CFD82C00BD6A0B00DA
:1015D000002D4DD00021BB62230000268A46A9467B
:1015E0005C46984605E0322D22D9013604344E453A
:1015F00030D022683221D3009B185246DB0043448E
:101600001A613A69B300D558280003F065F900293A
:10161000E9D02068C3001B18DB0043445A79002A34
:10162000E1D11B79002BDED0FFF766FB322DDCD831
:101630002068C3001B18DB0043445A79002AD4D128
:101640001B79002BD1D029000136FFF755FB04345C
:101650004E45CED15A464446BB6A1068C1000918AF
:10166000C900611849790029F7D104329A42F4D1AE
:101670000120BD460DB0F0BCBB46B246A946A0460F
:10168000F0BDC046AC1A0020F50A00100200396A0D
:10169000013210009142F9D83A6A002A00D057E787
:1016A000E6E70B003A6A013319009A42E0D90B00D1
:1016B0003A6A013319009A42F3D8D9E7002D00D0D5
:1016C00038E7E9E7094A10B59446402483006344AB
:1016D0001A68C000624080341440802252011343D3
:1016E0001C60034B9C466044416010BD04C0014037
:1016F00000400140074B80009C4660440368C900DD
:1017000092000A435A400C231A4080235B01034392
:101710001A60704704C00140074BC0009C466044FB
:10172000036809025940C0239B00194080235B01D4
:10173000034319607047C046044001400123D02292
:101740008340120693629361094A402194468300C4
:1017500063441A68C0004A4080311140802252011F
:1017600013431960034B9C46052360444360704754
:1017700004C0014000400140EFF3108072B6034AFC
:101780001368002BFCD0BFF35F8F70472C0100D093
:10179000BFF35F8F0022024B1A6080F310887047FE
:1017A0002C0100D0F8B5CE464746914680B5EFF300
:1017B000108C72B6104D2B68002BFCD0BFF35F8FDE
:1017C000CB08C45CC7180720260001230840C64088
:1017D0001A00324033420BD183401C433C70BFF3AC
:1017E0005F8F2A608CF31088C0BCB946B046F8BD44
:1017F000484601F09FF8C0462C0100D0F8B5CE460F
:1018000047468C4680B5EFF3108872B6214D2C68A0
:10181000002CFCD0BFF35F8F9A422DD8D408055D11
:10182000071907242E001440E640F6071ED50721AD
:101830008946063908E0D408055D07194C462E0094
:101840001440E640314211D001329342F3D20120DC
:101850004042BFF35F8F00220E4B1A6088F310885E
:10186000002811DBC0BCB946B046F8BD0123A34037
:101870001D4310003D70ECE7BFF35F8F00232B602A
:1018800088F31088012040426346002BEAD0089874
:1018900001F050F82C0100D00021044B044ABFF3A2
:1018A0005F8F02C39342FAD17047C046000100D057
:1018B000800100D0044A1078431CDBB2172B00D9FA
:1018C000102313707047C0465002002010B5064B1D
:1018D000064C82B00100009318221F232000FFF75E
:1018E0008DFF02B010BDC0468C8A0010741300201A
:1018F000024B18688007C00F7047C04600C0064002
:10190000F8B5040006200D0001F09EF9002844D02F
:101910002A4B2B49E21853425A418023DB039C4651
:101920009205284B62441A60274B1A6010008B689E
:101930009843FBD1214B254AE31859424B41802162
:101940005B0049009952062001F07EF92900C00091
:1019500002F0C2FFC30921D14027012126008025C2
:101960006162A36200232C36AD0135432B60062053
:1019700001F06AF93900800002F0AEFF6022E36AEC
:1019800053400E321A4080235B0133431A60104BE0
:10199000236310232B600D3BA364F8BD0D4A9342D3
:1019A00003D900230C4F0D49D8E77F2202400132B2
:1019B00052089F011900BF181300CFE70080FCBF39
:1019C00000C0004000E0004000F00040941D0020F6
:1019D00001030000FEFF0000C0FF3F00FFFF00000A
:1019E00083680B4810B584466144624412010901C2
:1019F00059189B185C684A680120944201D802D0AB
:101A00000020C0B210BD1A680B689A42F9D8F7E7F7
:101A1000FFFFFF0F40BF002000217047F8B5574679
:101A200045464E46DE46E0B598460CAB1C780DABFD
:101A30001B78070091469A460568002C5AD1AC7B6A
:101A4000002C3BD0660029683619033E89194B7873
:101A5000AB73002B00D1EB7300238B704B700B70BA
:101A60002B4BE218BB6812019B184A461A6042468B
:101A70005A600A9A9A600B9ADA6000238B704B7056
:101A80000B706B7B9B46002B27D022006B6859465E
:101A9000A86898475B465B005B442A68033B0028C4
:101AA00012D058469619B070D118D35C002B00D0D4
:101AB00073705B460C706B735C450FD0F0BCBB461B
:101AC000B246A946A046F8BDD3189C709119925D04
:101AD000002A00D05A705B460B706C734A4643462E
:101AE000387D00F0EDFB051E0AD10E9B002BE5D0E2
:101AF0001D70E3E7660029683619033E8919AFE7D0
:101B00005346002BF1D12100386800F045FEECE788
:101B1000FFFFFF0FF0B5DE4657464E464546002311
:101B2000E0B58DB00A936A4B8200D75800239B46DC
:101B30000B9000F065FB02000B007868EFF3108952
:101B400072B64D4601680029FCD0A946BFF35F8FED
:101B500039684E7B8C46002E2ED0BC685D49A2466B
:101B6000711809018A4451460868496804000D004B
:101B7000A41A9D41002D5EDD02000B000B9800F0C1
:101B80009FFB002300229A4600230892099300231A
:101B900098467B68BFF35F8F5A461A6089F31088B6
:101BA0004346002B12D10028C3D10DB0F0BCBB4678
:101BB000B246A946A046F0BD002300229A46002363
:101BC00008920993002300209846E2E70A9B5146B9
:101BD00018023043C047069007917A68EFF31085EA
:101BE00072B654461368002BFCD0A246BFF35F8F39
:101BF0000699079A002A3BDB114302D03B69002B70
:101C000052D13B68D97B002905D01A684800411899
:101C10005218033A5670DE73FA68013E935D013341
:101C200093555B463B617B68BFF35F8F5A461A60F2
:101C300085F310887DE7002D01D1002C9CD1002177
:101C4000604600F011FD53465C681B6808930994D8
:101C500053469B6898465346DB689A46FB689B1937
:101C6000013B1B780A931B0203433B61002090E772
:101C70003B69002BC5D0089B099C5B1A94410898CE
:101C800009991A002300A14219D899421BD00021BA
:101C90000491013103915146019141463800029669
:101CA0000091FFF7BBFEBCE700F0AAFA069A079B7B
:101CB00012184B41994202D8E9D19042E7D901224A
:101CC0005242D317E3E708999142E0D9F7E7C046BB
:101CD0009C1A0020FFFFFF0FF8B557464E464546B9
:101CE000DE46E0B53E4D824689466A68EFF31088CD
:101CF00072B61368002BFCD0BFF35F8F2E68B47BE5
:101D0000002C48D0670033683F19033FDB195A782D
:101D1000B273002A00D1F273324AA118AA680901ED
:101D2000521851461160494651602F499160002177
:101D3000D160997059701970737B9B46002B41D00C
:101D4000220073685946B06898475B465B005B4465
:101D50003268033B00282CD05846D719B870D118E8
:101D6000D35C002B00D07B705B460C7073735C45BA
:101D700029D00026EB681B19013B19786B68BFF36B
:101D80005F8F00221A6088F310880020002E0AD18D
:101D90000802204307E06B68BFF35F8F1C6088F385
:101DA000108801204042F0BCBB46B246A946A0467E
:101DB000F8BDD3189C70D119D25D002A00D05A709A
:101DC0005B460B70747352464B46287D00F078FAE0
:101DD000061ECED02100286800F0DEFCCAE7C0460F
:101DE00054020020FFFFFF0F151A001010B5104C11
:101DF0006368002B00D010BD23000E4A102120681C
:101E000000F038FB032000F0EFF9032000F0C6FAE1
:101E10000320094900F00EFAFFF74CFD074B9C46E2
:101E2000032360442375064B80006060DC60E2E7BA
:101E300054020020E1190010151B0010400000346E
:101E40009C1A00200048704754020020F0B5574605
:101E50004E464546DE46E0B585B0019310AB1B7893
:101E60000600039300239A46984600927268EFF3A7
:101E7000108B72B61368002BFCD0BFF35F8F3568F0
:101E8000AC7B002C6AD067002B683F19033FDB193D
:101E90005A78AA73002A00D1EA73504AA118B2688E
:101EA0000901521800980199106051600E999160D3
:101EB0000F99D16042469A705A701A706B7B99469E
:101EC000002B00D170E022006B684946A868984753
:101ED0004B465B004B442A68033B00285BD04846D6
:101EE000D719B870D118D35C002B00D07B704B464B
:101EF0000C706B734C4558D0F3681B19013B187874
:101F00007368BFF35F8F42461A608BF310885346A5
:101F1000002B08D10002204305B0F0BCBB46B246FE
:101F2000A946A046F0BD039B002B54D00E9B002079
:101F30000F99984703000B434DD004000D1E16DA8D
:101F40000098019902000B00121BAB4199421CD86A
:101F500038D000920193039B9A4687E77368BFF3DA
:101F60005F8F1C608BF3108801204042D4E700F0A3
:101F700047F902000B00A4185D4100940195A942A5
:101F800003D8E8D100998A42E5D901235B42DC17E6
:101F900000930194DFE7D3189C70D119D25D002A19
:101FA00000D05A704B460B706C73307D009A019BC9
:101FB00000F086F9824600289ED02100306800F0AB
:101FC000EBFB99E700999142C3D901235B42DC17EF
:101FD00000930194BFE700209EE7C046FFFFFF0F7C
:101FE000F8B5040000F00CF9FA2206000F002000FA
:101FF00000230021920003F0AFFA80197941040018
:102000000D008F422DD82AD006267642F7173619B2
:102010006F41AF422CD90026002700F0F1F83200C2
:102020003B00121A8B41002B07DC04D02900200052
:1020300000F0F0F8F8BD002AF8D030003900FFF7C2
:102040004BFE0028F2DB39000C4A536A994204D84F
:10205000906AB042EAD29942E8D120BFF5E78642C1
:10206000D2D901246442E51707267642F717D4E750
:10207000AF42D2D1A642CED8CFE7C04600400540FD
:10208000F8B5CE46474680B505000C00FFF724FEA4
:10209000031E11DC244A0020536AA34203D3926A30
:1020A0000130AA4203D3C0BCB946B046F8BD1B1BE1
:1020B0005A1E9341D8B2F6E720BF1C4E7168EFF369
:1020C000108772B60A68002AFCD0BFF35F8FDAB2BD
:1020D0009446FF2230681A40417B61450AD001686E
:1020E00089465100884649469044414403398978DD
:1020F00000290FD0F1681B0A8A18013A1278DBB266
:102100009A420CD07368BFF35F8F00221A6087F386
:102110001088BFE732699342F4D13161F2E761463A
:1021200000F03AFBEEE7C0460040054054020020B4
:10213000F0B5D6464F464646C0B5EFF305823F237D
:10214000134018001038EFF3108C72B620490A685B
:10215000002AFCD0BFF35F8F0122170087401D4C7F
:102160001600A24667631C4C2578A0462C00C4408C
:102170002640224215D05246566A184A8400A25878
:10218000964218D34246164BBD43E3581570BFF331
:102190005F8F00220A608CF31088002B06D09847CE
:1021A00004E0BFF35F8F0E608CF31088E0BCBA468A
:1021B000B146A846F0BD0B4A9B00904643441A68BE
:1021C0001A60BFF35F8F00230B608CF31088EDE77C
:1021D000280100D000400540A61D0020841D0020DD
:1021E00064130020D03F054010B5034B01001800D8
:1021F000024AFFF7D7FA10BDA11D0020A88A0010DF
:10220000034B596A0A00986A596A8A42FAD17047A0
:1022100000400540064A536A9942FCD807D1044B56
:1022200002E05A6A914202D19A6A8242F9D3704717
:102230000040054070B504000D00EFF3108672B643
:102240001A4A1368002BFCD0BFF35F8F002D1BD000
:10225000200000F0ADFD164981420AD0200000F0B8
:10226000AFFD0121200000F089FD0123A340114AA8
:102270001360114BA400E550BFF35F8F00220B4B9E
:102280001A6086F3108870BD0121A1400A4BA2009C
:10229000D5500A4B20001A788A4305491A7000F07D
:1022A000B9FD0021200000F069FDE5E7280100D01C
:1022B000312100103860054064130020A61D002065
:1022C000F0B54F46D6464646C0B507002E4C616A6B
:1022D0000D00A66A616AA942FAD18B4208D805D0DE
:1022E0000120E0BCBA46B146A846F0BDB242F7D9DB
:1022F000EFF3108A72B6254801680029FCD0BFF3BD
:102300005F8F0125BD4022491F4C884609788946C8
:102310002943C9B28C46414660460870391D890080
:1023200065630A511B49B8004350216A00202942C5
:1023300019D0616A0800A66A616A8142FAD18B42AB
:1023400019D801D1B24216D8CC450BD00E4B1F2262
:102350001D625D6301233A4093400F4A1360434678
:102360004A461A700120BFF35F8F0022074B1A60A4
:102370008AF31088B5E70020BFF35F8F0022034B7C
:102380001A608AF31088ACE700400540280100D0AD
:10239000A61D0020841D002080E200E0EFF3108CD9
:1023A00072B60A490B68002BFCD0BFF35F8F012384
:1023B0008340074A0748136202789A430270BFF3CA
:1023C0005F8F00230B608CF310887047280100D0CA
:1023D00000400540A61D0020024B9C466144890038
:1023E000016070474000003410B50400FFF762FA46
:1023F00001002000FFF7F0FFFF232371BFF35F8F81
:1024000010BDC04610B504000120FFF75FFA0100BF
:102410002000FFF7E1FFBFF35F8F10BD70B506002E
:102420000D00140000291DD0002A12D073688068A6
:10243000984762006B0012195B193168033A033B3D
:10244000002808D08A189570C818CB5C002B0BD1D7
:102450000470280070BDCB189C7088188A5C002A14
:1024600005D105702000F5E753700470F1E75A704C
:102470000570F7E710B583600023CCB243730133D6
:10248000426004738373C4730068421C012C05D935
:102490000133DBB2137003329C42F9D1FF230B40AE
:1024A0005A00D318C01800230338437010BDC0462B
:1024B00070B505000C1E07D0630001681B19033BB3
:1024C000CB185A78002A01D1200070BD5000801826
:1024D0000338091800204E784870210058702800F1
:1024E000FFF79CFF310004002800FFF7E1FF060022
:1024F000002C20D00028E7D0320021006B68A868AB
:1025000098477200630092191B192968033A033B2C
:10251000002808D08A189470C818CB5C002B00D013
:1025200053700670D0E7CB189E7088188A5C002A1A
:1025300000D05A7004703400C6E7C046F8B557465C
:102540004E464546DE464C00E0B56418170002686A
:10255000033C0500105D13190E009C46002852D064
:10256000430098461B18033BD31859788A46002924
:1025700019D1002F0CD0EC7B002C50D063001B191C
:10258000D318033B5E70EE73434619180339531892
:1025900000229A70002362465370F0BCBB46B246DC
:1025A000A946A046F8BD4900514403395218517854
:1025B0008846002151708946597052460100280012
:1025C000FFF72CFF43468246002B07D05B002968AB
:1025D0004344033BCB185A78002A2CD1514642463B
:1025E0002800FFF71BFF0100002F1AD0A4462A681D
:1025F000EF7B9444002F04D07B00DB19D318033BFE
:102600005E70EE7310E0002FC4D0E97B002910D07B
:102610004B005B18D318033B5E70EE73BAE7EE73A2
:10262000B6E7A4462A6894440029B3D04B009846E4
:10263000AAE7EE73AEE7500080180338091848780F
:10264000834648464870587041462800FFF7E6FE2A
:10265000594680462800FFF72BFF4146020028001C
:10266000FFF7DCFE8046B9E7F8B557464E464546CB
:10267000DE46E0B5467B02687500AD19033D0F00EC
:10268000515D531904009C46002953D04B009846D5
:102690005B18033BD3185878824600281BD1002FC3
:1026A0000CD0E57B002D51D06B005B19D318033B98
:1026B0005E70E673434658180338131800229A7068
:1026C00000236246300053706173F0BCBB46B246D3
:1026D000A946A046F8BD400050440338121850786F
:1026E0008046002050708146587052462000FFF707
:1026F00095FE43468246002B07D05B002168434489
:10270000033BCB185A78002A2CD151464246200070
:10271000FFF784FE0100002F1AD0AC462268E77B49
:102720009444002F04D07B00DB19D318033B5E7068
:10273000E67310E0002FC3D0C07B002810D0430008
:102740001B18D318033B5E70E673B9E7E673B5E771
:10275000AC46226894440028B2D043009846A9E7CA
:10276000E673ADE7500080180338091848788346AF
:1027700048464870587041462000FFF74FFE5946C2
:1027800080462000FFF794FE414602002000FFF73C
:1027900045FE8046B9E7C04670B5050000292CD03B
:1027A000437B8B422ED04C0000686418033C041914
:1027B000A278002A21D053009B18033BC25CC618A4
:1027C0008A4202D11BE0002A08D053009B18033B29
:1027D000C3185A788A42F6D162785A7000230122CF
:1027E0002800A3706370FFF7A9FE697B0200280030
:1027F000FFF714FE6873012000E0002070BD6378CD
:102800003370EBE701221900FFF798FEF2E7C046AC
:10281000F8B52B4A2B4B2C491A602C4A2C4B1A60CA
:1028200014008B689C43FBD12A4D2B4EB54208D235
:10283000013E761BB60808CD984723000134B34209
:10284000F9D100F095F8254A214B1A601E4A936889
:10285000DB43DB01DC09002BF9D14022204B214D69
:10286000214F9A675A671A67DA66BD420BD2002673
:10287000013F7F1BFF082800FFF7B6FD0835330036
:102880000136BB42F7D1194D194EC022B16828005C
:1028900002F048FFB560FEF7FFFF00F0F5FBFFF721
:1028A000A5FA144D144EB54208D2013E761BB60867
:1028B00008CD9847230001349E42F9D1F8BDC046A7
:1028C000BFCDFFFF00E0004000C00040FE7F3C00A5
:1028D00000F00040940B0020A40B0020FFFFFF013C
:1028E00000F00140840B0020940B00200000002029
:1028F00000ED00E0A40B0020AC0B0020094A03000F
:102900001068002805D00849C3188B4207D8136007
:10291000704706480449C31810608B42F7D901205C
:102920004042F5E7F413002000000420A81D002019
:1029300000BEFDE70FB400B5084883B002F0CCFF3D
:10294000049B002B07D005A91800019101F046FF58
:10295000034802F0C1FF00BEFDE7C046CC8A00106C
:10296000DC8A001010B50148FFF7E4FFE08A001090
:1029700010B50C2082B000F06DF9FEF7B9FF002809
:1029800010D08C4B8C488C498C4A186059609860E8
:10299000D960186159619861D961186259625A62A7
:1029A00002B010BD864CA06700F0AAF90122854B49
:1029B0001A60636C012BFCD10322834B1A60804A9E
:1029C000936B012BFCD1C022804B92011A60804B8B
:1029D00080491A6010008B689843031EFAD10224C4
:1029E00001217D4A7D480633009400F09DF90523BE
:1029F0007B4A01217B48009400F096F97A4B5A6893
:102A0000FF2A02D8802252005A6080226E4B694C05
:102A100012011A602169002905D0606901F05CFF8C
:102A200001300138FDD1E0226F4B704819680A402F
:102A3000026002221968514001320A4004210260FA
:102A40009A681142FCD08021694A090111608022F4
:102A500052005A60674B2361674B5968FF2900D8C1
:102A60005A6003220121574B1A60634A9368194246
:102A7000FCD0E02310680340604803601268032321
:102A80004A40022113405C4A036093681942FCD01B
:102A900080215B4B0901196080215A4B490051602C
:102AA0006361594B5A68FF2A00D859608022574BFE
:102AB00012011A60E169002905D0606901F00CFF7C
:102AC00001300138FDD1E0234F4A11680B405049D5
:102AD0000B6080214F4B090119608021364B490062
:102AE0005160E3614C4B5A68FF2A00D8596080223C
:102AF0004A4B12011A60216A002905D0606901F071
:102B0000EBFE01300138FDD1E023434A11680B4050
:102B100043490B608021434B0901196080235B000E
:102B200053608022244BD20223623F4B596891426A
:102B300000D25A6080223D4B12011A60616A00295E
:102B400005D0606901F0C8FE01300138FDD1E023F5
:102B5000354A11680B4036490B608021354B09011D
:102B600019608023DB025360144B6362324B5A6856
:102B7000FF2A02D8802252005A6080222F4B120175
:102B80001A60A169002905D0606901F0A5FE013035
:102B90000138FDD1E023284A11680B4028490B6019
:102BA0008021284B0901196080235B005360154B7D
:102BB000A361F5E6B00B0020006CDC021BB700003F
:102BC000008000403CB0004030B0004000E00040D9
:102BD00000F0004000C00040002F68590080024013
:102BE00000389C1C00C00240308000403090004003
:102BF00030A00040001BB7003C8000403C900040EB
:102C00003CA00040405973075480004054B000403D
:102C10005490004054A000406080004060B00040EC
:102C20006090004060A000406C8000406CB00040AC
:102C30006C9000406CA000404880004048B00040CC
:102C40004890004048A00040014B8000C0587047A9
:102C5000B00B00208023024A9B000343D3627047DD
:102C60000080054010B580241B4BE4051C60002843
:102C700021D00123194C1843194BDC61194C4440F5
:102C80001C62596298628021134BC905196016486D
:102C900016490860E021C9041960002A0ED05301CA
:102CA0009B1A9B009A18802312015B049A4210D34E
:102CB0000F4B1A0004E00A4BD861E4E70D4B1A00F1
:102CC0000D490B60064B5A6080220C4BD2051A60EE
:102CD00010BD1300F4E7C04600B00540D3C007B0F4
:102CE000008005402D3FF84FFCFF01000820014007
:102CF000FFFFFF00A08601007C1A002000A0054015
:102D0000AA23064A1B0113602F230549D360054BF4
:102D100019605368002BFCDA7047C046004002403F
:102D200000B0FA000060024070B51D0001235B4254
:102D3000436000230400836001600C20160001F052
:102D4000CBFD43011B1A9901C91AC9000918890151
:102D5000300001F0C1FDC023221D9B01134321223D
:102D6000A0601A602268002AFCDA049A2D0412037B
:102D700015430822E5601A6070BDC04601238340F8
:102D8000002904D0034A1360034A13607047034AC2
:102D90001360FBE780E200E000E100E080E100E09A
:102DA00001238340014A13607047C04600E200E0FF
:102DB000024B10309B688000C058704700ED00E067
:102DC00070B50D00EFF3108672B60F4A1368002B32
:102DD000FCD0BFF35F8F0D4B10309B6884001B59F4
:102DE0000B4A934203D09D4201D0FFF7BBFD074B36
:102DF0009B681D51BFF35F8FBFF35F8F0022024BB3
:102E00001A6086F3108870BD240100D000ED00E048
:102E1000CD010010F0B5DE4657464E464546E0B5BA
:102E20000C0083B0EFF3108A72B65D4A1368002B72
:102E3000FCD0BFF35F8F1022914681444A46594B24
:102E400096009B689D59584B98469D4205D0A542D7
:102E500016D0564FEB1B2F2B14D9524B9B689D510C
:102E6000BFF35F8FBFF35F8F00224D4B1A608AF371
:102E7000108803B0F0BCBB46B246A946A046F0BDE0
:102E80001D00EAE7012383409B465A46484B1B68D6
:102E90001A4000925A46474B1A60BFF35F8FFDF706
:102EA000E2F90190002801D0814528D101232A00B0
:102EB0009A431300DB1B5B4145495943090D8C467E
:102EC00091688C4208D161E043001B189B00FB18FD
:102ED0009968A14216D01A00062010560028F3DA8D
:102EE000A14235D0009B002B05D05A46324B1A60C8
:102EF0002F4B1A60B1E75A462E4B1A60ADE7FFF729
:102F000031FDD3E706201856002822DB42001118B5
:102F100089007C188846A1689960E179D9710621F9
:102F200061569971002921DBA488F91A64052415DA
:102F300044440919E0240905490D240221439980DC
:102F400013181E4A9B001178FB1899711070C9E77D
:102F50001300019900290CD1FF209071184890802E
:102F6000164A1078987163461370BBE7BD210902B9
:102F7000E5E7144A1449D21A083A5002400D0143B9
:102F80009980124952080A43DA80ABE706201056AE
:102F900013000028BADA019A002AEAD14546DFE791
:102FA000240100D000ED00E0CD0100107C020020E3
:102FB00000E100E080E100E080E200E0A31D0020ED
:102FC00000BDFFFFB602002000F0FFFF00F8FFFF8A
:102FD000AAAA0000F8B5012504000543FDF743F94E
:102FE000EFF3108C72B6214A1368002BFCD0BFF3AC
:102FF0005F8F1F4E2200B7681E49521A5241214B63
:1030000053431B0D8200B8585BB2A8421CD0062265
:103010008A569A421CD012228A569A4222D01E22E6
:103020008A569A4220D02A228A5603209A4210D0E9
:10303000114A11781370A171BFF35F8F00220B4BFF
:103040001A608CF31088F8BDB1680C488850EFE71F
:1030500000204200121892008918FF228A71084A43
:103060008A80E5E70120F4E70220F2E7240100D09E
:1030700000ED00E07C020020A31D0020CD01001027
:1030800000BDFFFFAAAA0000F0B500220324FF271D
:10309000802620003D00094B11009C461040C000D6
:1030A0008540A14361440B680132AB433500854044
:1030B0002B430B60202AECD1F0BDC04600E400E0B9
:1030C0007047C046F8B557464546DE464E46E0B521
:1030D00098460A9B06009A460D9B0F0093461500E2
:1030E0009B0710D10B9B0C9A93420CD213005C46A9
:1030F0000B9A9D1A5D44220043460134390020207A
:10310000B047A542F7D10B9C6319002C09D01D00D4
:1031100053462A1B013C185D39004346B047002C3A
:10312000F6D10D9B9B070ED55B46EC1A0C9BA34278
:1031300009D999462A004346390020200134B04776
:103140000135A145F6D82800F0BCBB46B246A946D9
:10315000A046F8BDF0B54F464646D646C0B584B049
:1031600098460EAB1B7894469946129B0D9C109F77
:10317000119E9A0724D4002E6AD1BC4220D201228B
:103180001A409246202C00D1D2E00C9A551E3022D3
:1031900001E0202C30D001342A55A742F9D85246FC
:1031A000002A0DD0B4420BD20C9A551E3022202C8E
:1031B00002D126E0202C63D001342A55B442F9D143
:1031C000DA0634D55A0564D4002C5ED10F9A102A41
:1031D00000D197E0022A00D1A8E030220C9C227096
:1031E00001244A46002A5ED15A0700D483E02B22EC
:1031F0000C9D2A5501341CE05246002A02D0202E94
:103200003ED92024DA0614D55A0512D4202F00D135
:10321000A1E0202E3DD120261F2234000F9D102D2D
:1032200000D18BE0022D52D030250C9FBD54202CB4
:10323000D7D103930C9B62460093029643460194B8
:10324000FFF740FF04B0E0BCBA46B146A846F0BD67
:10325000012215001D40AA461A4229D04A46002ADA
:1032600039D10C321A4236D1BC429BD2202C00D02C
:103270008BE710221A40202EC3D8002AA2D1D8E70B
:103280002024DA06D5D55A0503D4A74225D0B44266
:1032900023D00F9A102A25D0022A14D0202CC8D06F
:1032A00022000134C0E72D220C9D2A550134C0E7CD
:1032B000BC4200D384E7202C00D066E710221A40DD
:1032C000002AE0D1B5E7202CB3D0220001346225DA
:1032D0000C9FBD54E2E7013EC6E7621E012C00D1FF
:1032E00074E79BE79A0616D4202CA2D078220C9D76
:1032F0002A550134D2E71A079BD520220C9D2A5566
:10330000013496E79A060FD478220C9C2270302262
:103310006270022465E7202C00D18AE758250C9AB8
:10332000121915700134B9E75822EEE76222ECE772
:10333000102255461A40002D9FD1C1E7023C9D0640
:1033400004D478250C9F3D551400A9E758250C9FFF
:103350003D551400A4E71F2260E7C04610B50028C1
:1033600000D110BD02F060FAFBE7C0460B0010B5BB
:10337000002802D049681B68984710BDF0B5574631
:103380004E464546DE46E0B599B0824689469046AF
:103390000893229A239B1000190001F052FD002887
:1033A00000D0CDE0229823990122D94B524201F05E
:1033B00043FD002800D0C3E0229823990122D54B79
:1033C000524201F02BFD002800D0B9E02298239949
:1033D0000022002301F022FD002800D0F1E1229E0E
:1033E000239F8023269ADB001A400D92269A1A42C8
:1033F00001D1062324938023269A1B011A403B0007
:1034000093460996334300D0B3E0002A00D0C2E1CE
:10341000002300240A930B94002304250993259B81
:103420000024AB4200D95C1B0223269A1A400C925E
:10343000269A134203D06B426B415B421C40099BAE
:10344000002B07D00A9A0B9B3000390001F09BFC3F
:1034500006000F00229823990022002301F0DEFCD1
:10346000002803D0802109067B181F00269AAA4B4A
:10347000009601971340089E0493249B03940293A3
:10348000424633004946504600F0AAF90400002D98
:1034900067D02020269A4946024013005A425341E1
:1034A0005B42621C18400A92330022004530D0472C
:1034B000099A6F1ED317D4185C40D30F9B46002582
:1034C00001E0202D13D008AA94461F232000634456
:1034D0000A2101355E1901F0FFF930313170200009
:1034E0000A2101F0F9F926000400092EE9D8052384
:1034F0000693002304930A3303935B46089E0293CA
:1035000010AB0A9A0093494633005046059701953F
:10351000FFF720FE0C9A0400002A22D04246851AAA
:10352000259AAA421DD9B0465746160022004346A6
:10353000494620200135B8470134AE42F6D810E0A4
:10354000269B42460493259B49460393249B504661
:103550000293229B239C00930194089B00F040F966
:103560000400200019B0F0BCBB46B246A946A046F4
:10357000F0BD6A4B78009C46400D604401F074FC3D
:10358000674A684B01F008FC674A684B01F0F2FBA0
:10359000674A3B031B0B1A4304000D0009981100F6
:1035A000644B002201F0DDFB634A644B01F0F4FB45
:1035B00002000B002000290001F0DCFB01F06CFC94
:1035C000099001F051FC5E4A5E4B04000D0001F0D1
:1035D000E3FB00225C4B01F0CDFB01F05DFC5B4A9C
:1035E0005B4B29000C90200001F0D6FB04000C98E6
:1035F0000D0001F039FC574A574B01F0CDFB02009A
:103600000B002000290001F0ACFB04000D000200BB
:103610000B000A940B9501F0BFFB04000D000A9803
:103620000B9902000B0001F0A5FB00220E900F91F8
:103630004A4B2000290001F0A6FB0022484B01F074
:1036400099FB02000B002000290001F09CFB0022E6
:10365000444B01F08FFB02000B002000290001F019
:1036600092FB0A9A0B9B0D0080210400C9050020E3
:1036700001F077FB02000B002000290001F07AFB2B
:1036800002000B000E980F9901F07DFB0022284BE1
:1036900001F070FB344B0C9C9C46644423050022D3
:1036A00001F07AFB04000D0002000B00300039002D
:1036B0000A940B9501F0B2FB00285DD123002A008B
:1036C000C625099963318D42AD4159466D42043595
:1036D000002900D1A3E6134363D030003900234A08
:1036E000234B01F0A1FB002807D000223000390055
:1036F000204B01F093FB002853D1249B002B00D1D9
:103700008DE60D9B5A1E9341249AD31A249386E684
:10371000FFFFEF7FFFFFEFFFFFF7FFFF01FCFFFF62
:10372000FB799F501344D33FB3C8608B288AC63FB0
:103730000000F03F0000F83F61436F63A787D23F6E
:1037400071A379094F930A400000E03F1655B5BBBD
:10375000B16B0240EF39FAFE422EE63F00002C40EA
:103760000000244000001840FF0300002D431CEB24
:10377000E2361A3F80842E41099B0022013B0993C7
:103780002000164B290001F0FEFA0A000100030098
:103790000A910B9294E7002300240A930B940023D0
:1037A0000993249A099B9A4214DDD31A013B24936E
:1037B0008023269ADB001A430023002526920993D2
:1037C0002DE6802212069446229B1E00239B634412
:1037D0001F0006E600232493EAE7C04600002440C9
:1037E000F0B54546DE464E465746E0B595B08B46A9
:1037F000904699461E9A1F9B0A9019001000209D22
:1038000001F01FFB002800D0B0E11E981F99012293
:10381000C74B524201F002FB002800D037E11E984E
:103820001F990122C34B524201F006FB002800D031
:10383000A7E01E981F990022BF4B01F0FDFA002857
:1038400000D088E01E981F990022BC4B01F0E6FAD8
:10385000002800D07FE01E981F990022002301F06D
:10386000DDFA002800D0FAE000230B938023229C8D
:10387000229ADB001C401A4200D102E1092D00D837
:103880007EE106A98C462C00172200233021093C3A
:1038900062440133D154EF1A202B00D132E1A3420C
:1038A000F7D10022A44B069207931E981F9901F0AE
:1038B000F3FA050001F0D8FA02000B001E981F99D8
:1038C00001F04FFA069A079B01F066FA08900991F9
:1038D00001F006FB060001F0C3FA02000B00089895
:1038E000099901F03EFA0022954B0890099101F0E8
:1038F000A3FA002800D1D2E00136300001F0B0FA7E
:10390000069A079B01F090FA002801D000260135A5
:10391000AA46002F00D098E0280001F0A5FA020086
:103920000B001E981F9901F01CFA854B002206001F
:103930000F0001F073FA0CAB9A46002845D1002223
:10394000300039007E4B01F077FA00283DD1EB07BB
:103950003BD5013539E0229B42460493219B5946D1
:1039600003930A981E9B1F9C0295009301944B465B
:10397000FFF704FD15B0F0BCBB46B246A946A04611
:10398000F0BD229B5B0767D403226E4B2299019204
:10399000039121990291009342464B4659460A9859
:1039A000FFF790FBE6E706AA944617232800634436
:1039B0000A2101341E1900F063FF303128003170F4
:1039C0000A2100F05DFF051E76D0202CEBD10323E9
:1039D000229A1340012B1DD1219B002B1AD00B9B47
:1039E000002B00D0BBE0229A0C33134200D0B6E08B
:1039F000219BA34200D887E006AB9C4617223023C8
:103A0000624404E02199013413558C4259D0202C92
:103A1000F8D12024229B01940393219B02935346C7
:103A2000B9E706AA944617230A21634430000134FB
:103A30001D1900F051FF3031297030000A21013F7B
:103A400000F04AFF092E46D90600202CE9D1554640
:103A50000CAB20249A46B8E704223B4B96E71E9A0B
:103A60001F9B0020002101F07CF901230B93802390
:103A7000229C229ADB001E901F911C401A4200D00B
:103A8000FCE60022314B0627069207930DE7229BA6
:103A90000393219B0293042301932D4B7BE7002288
:103AA00008980999264B01F0B9F9002800D02FE7B2
:103AB000002E4FD101362BE70323229A1340012B0E
:103AC00068D0202CA6D00B9B002B1FD02D23524654
:103AD000135501349EE75546202CB9D030223B19AE
:103AE000002F4BD0172006A9013409180A55202CA5
:103AF000AED09C42F6D10CAA92462E2251465C1CB6
:103B0000CA5462E72024CCE6202C83D0229B5B079A
:103B100008D4229B1B0700D47CE720235246135570
:103B2000013477E72B2352461355013472E7C04620
:103B3000FFFFEFFFFFFFEF7F65CDCD4165CDCDC12D
:103B40000000E03FF48A0010EC8A001080842E41CF
:103B5000FC8A0010F30700D4DAE60136D8E6219B90
:103B6000013B2193A34200D946E7AAE7229B039396
:103B7000219B029303230193084B0CE72300BAE730
:103B8000074BEA009B185C681B682F00069307949C
:103B900000248AE6219B002B93D020E7F88A0010AE
:103BA000A08C0010F0B54546DE4657464E46E0B5BF
:103BB000A1B01D002A9B90460B93D04AD04B834660
:103BC0008A461A60002900D1A4E10023287899468A
:103BD000002800D1A6E1CB4B5E460993CA4B4C4668
:103BE000D34647460D930AE0631C984622003B00EB
:103BF0005946B04744462878002800D1CDE0013529
:103C00002528F1D108239A46043B9946023B984661
:103C1000013B00229C460C942878691C0300203B41
:103C2000DBB2102B03D8099C9B00E3589F4603008E
:103C3000303B0C9C0A92092B7FD9002398462A28F6
:103C400000D1C1E000239A462E2800D190E0030065
:103C5000683BDBB2122B1ED8AC4A9B00D3589F4660
:103C600063460D001A43D7E743460D001A43D3E7D6
:103C70004B460D001A43CFE710230D001A43CBE744
:103C800053460D001A43C7E780235B000A9A687801
:103C90001A430A9201310D0067280AD82428A3D9B3
:103CA0000300253BDBB2422B9ED80D9A9B00D358D4
:103CB0009F4601006939C9B20F2995D801238B406D
:103CC0009C46934B994663464A4613400C93624682
:103CD0004B461A4200D05EE20A2900D124E10729AE
:103CE00082D10B9B02CB9846002900D19BE1212079
:103CF0000A9A0243914610AB9C461F220F2340466E
:103D000062440B959C46A04615000C9B0A9002E06D
:103D1000202B0CD0110064460C4020003730092CB9
:103D200000D807380133E8540A090F29F0D80C935A
:103D30000A9B44460B9D984685E1002398460A9BC2
:103D400045469C4600E00131AB005B195B001D1845
:103D50000878303D0300303B092BF4D963460A93C1
:103D60000023A8469A460D0001312E2800D06EE7A8
:103D700080200A9AC00002430A923022524294469E
:103D800068780B0084446246092A00D82EE12A286C
:103D900000D13DE10D00013159E7DA46A146B346B5
:103DA000B846C84503D801235B424344994643467D
:103DB0004A4651460020D847200021B0F0BCBB46FF
:103DC000B246A946A046F0BD0B9B04CB9046002A04
:103DD00004DB68780B930D00013133E70A9A283829
:103DE00002430A9242465242687890460D000B9375
:103DF000013127E7672800D1C7E1472800D114E245
:103E0000452800D116E20A9A0721049242460B9BEC
:103E10000392073352468B43190002920CC93000BB
:103E2000009201930B9122003B005946FFF7A6FA3E
:103E30000400E0E680239B0028E76878682800D12A
:103E40001BE280230A9A01311A430A9223E7687819
:103E50006C2800D109E280230A9A5B001A430A9277
:103E6000013118E7462800D18AE10A9A0721049215
:103E700042460B9B0392073352468B431900029232
:103E80000CC93000009201930B9122003B0059466F
:103E9000FFF7A6FC0400AEE6631C984622003B0038
:103EA00059462520B0474446A5E60B9B04330C93A6
:103EB000631C99460A9B9A0700D4E7E10B9B2200FA
:103EC000187859463B00B04743464444012B00D87C
:103ED000B8E22B00B84625005F464C4699462200C2
:103EE0004346013439002020B047AC42F7D12C00C2
:103EF000BB464D4647460C9B0B937CE6A53B00100A
:103F0000781A0020048B0010948B0010488B00104E
:103F100041900000DC4B28789B46002399460028FE
:103F200000D058E600243CE70B9B02CB12930B78A1
:103F30009C4618005346002B00D09CE0002812D06D
:103F400002235B420133994689444A460B00894665
:103F5000110001E08B4203D05A780133002AF9D1D5
:103F600049465B1A0C938023DB0099460A9A13405A
:103F70000B934B461A4204D00C9B534501D9534630
:103F80000C93022399460A9A13400A934B46134214
:103F900000D1B5E16346002B00D197E10B9B002BCC
:103FA00000D14CE1D1460B1B9A462B00A1444D4653
:103FB0002200B9465F469B4609E04B463900541C37
:103FC000B0475346185D002800D158E122009542C1
:103FD000F3D15B46BB464F46A9461D004C460A9BA3
:103FE000002B00D072E1129B0B9304E655460A9A0F
:103FF000A9004919490001330D181878303D010016
:1040000030390929F4D9AA460A921D00591C1EE626
:104010000B9BA87804CB0235D143C9170A409246BE
:104020000B93691C13E60A9B10211A008A431000A7
:1040300011310843814680201A00C000024011005F
:10404000034200D157E64B46082206935346059299
:1040500008320392002204930C9B0292019318AB46
:104060002200009359463B003000FFF773F84346A7
:1040700004000B93BFE5002800D174E75346013BD1
:1040800060E7622800D1DFE1582800D1ECE10A990D
:1040900080230A00DB001A4010000A00194200D1F8
:1040A000BDE111239A430C920C9A802311009B00CE
:1040B00019408C461A4200D046E1802311005B0073
:1040C000194089460B9904310A911A4200D08FE2B7
:1040D00013005B0600D59EE113001B0600D426E307
:1040E0000B9B00229B5ED9175A184A4092B2D90FF7
:1040F0000B91002B00D177E2100010AA94464246A3
:104100001F23129252466344AA4614944D4604005B
:10411000B946B0461F00139201E0202D0FD02000B9
:104120000A2100F0D9FB01357E19303131702000B1
:104130000A2100F0D1FB26000400092EEDD8129BC5
:1041400046469846139B4F46A94655469A46149CA8
:104150000C9B069343460593534604930A2303930B
:104160000B9B02934B46019318AB220000935946D8
:104170003B003000FEF7EEFF0A9B04000B933AE58C
:1041800020230A9A1A430A926FE680230A9A1B0197
:104190001A430A9237E6782800D0AFE10A988023C4
:1041A0000200DB001A4011000200184200D1D0E2E8
:1041B0000D239A43100003330A93802302009B00CF
:1041C0001A409446184200D0ACE1802302005B0004
:1041D0001A4091460B9A04320C92184200D04AE2DF
:1041E000430600D493E20B9B1B780893002B00D06E
:1041F0004BE110339843002900D146E10023994652
:1042000043460593534604930A9B06900393002369
:1042100002934B46019318AB2200009359463B0092
:104220003000FEF797FF040065E680230A9A1B0121
:104230001A430A9220230A9A1A430A92E3E50B1BB7
:104240009A460C9B99462B005D469B4622003B00FC
:104250002900B04753460134185D0028F6D14B467B
:104260000C935B46AB461D00B9E6C0239B000A9A3F
:10427000A8781A430A92E91C0DE5C023F7E75D46CA
:10428000BB464F46ABE6C046C13000104346012B4B
:1042900000D8D1E0631E4344B9461D005F46A246E4
:1042A0008B4622004B46013439002020B047AC42F7
:1042B000F7D15D46BB464F46A14654460B9B4A4646
:1042C000187859463B004444B04714E60C9BA1467D
:1042D000984500D887E64444E41A2B00B8462500E8
:1042E0005F464C469946220043460134390020205F
:1042F000B047AC42F7D12C00BB464D46474672E66C
:104300000C98804500D81CE243461A19131A9946A6
:104310002B004D46B9465F469B460C9122004B460A
:10432000013439002020B047AC42F7D143460C9904
:1043300001330C930B785D469C46BB464F46604666
:10434000002800D02AE64EE607220B9B0733934352
:10435000013294469C4462460B920CCBD90F0A91D1
:10436000110019435FD0D9171191109151400E914E
:10437000119959400F910E980F99109A119B801A1C
:1043800099410E900F9110AA0023944642469946F7
:10439000129252461F336344B046AA464E461494C6
:1043A000B9460E9C0F9D1F00139201E0202E10D0E5
:1043B000200029000A22002300F0D4FA013630320E
:1043C0002B00BA550D0022000400002BEED1092A63
:1043D000ECD8129B4F46B14646469846139B0E9426
:1043E0000F9555469A46149C0C9B0693434605939D
:1043F000534604930A2303930A9B02934B4601936B
:1044000018AB2200009359463B003000FEF7A2FE95
:104410000400FFF7F0FB0B9B1B781A0067E61023E4
:104420009A430C9240E6002399460028DCD10022F2
:1044300000230E920F93A6E70B9B22001878594693
:104440003B00B0474C4656E50A9880230200DB004B
:104450001A401100184200D15FE102000D239A4377
:104460000B3B10000A93A8E60A9880230200DB00A9
:104470001A4011000200184200D166E10D232020ED
:104480009A43033310430A9397E66123820600D5CB
:104490004123DBB20A3B0B93434610A91F228C46F3
:1044A000129353466244AA46149415974C4680468C
:1044B000B14617000A9E089D139308E03033DBB223
:1044C00001343B55B5420ED3202C0CD005003100F1
:1044D000280000F001FACBB20929EFD90B9A9446D3
:1044E0006344DBB2ECE7129B40469846139B4E4672
:1044F0005546A1469A46149C159F81E66F2800D028
:1045000037E10A990C230A009A43802310000A001D
:10451000DB001A4011000A9A1A4200D021E1082358
:104520000A934AE60B9AFA3BFF3B07329A43013360
:104530009C46944463460B93136852680893134354
:1045400012921A1E05D10023103299469043002979
:1045500041D16122810600D54122D2B20A3A0C92A1
:104560004246002310A9139252468C469946149253
:104570001F330A9A6344AA46159417964C469046F0
:10458000B946089E1F00129D16900AE03032D2B242
:10459000002301343A55AB4211D0202C11D0060033
:1045A0000D00424600233000290000F0DBF9D2B2B2
:1045B000092AEBD90C9B9C466244D2B2E8E7B0458D
:1045C000EBD9139B55469846149B4F469A46A146F5
:1045D0001698179E159C43460593534604930A9BD1
:1045E00006900393002308E7002800D0B0E584E597
:1045F0000B9B1B68DA0F1100002B00D194E0DA1737
:104600009818504010AA914642461F2312925246D3
:104610004B44A046AA4614970400B14665461F00C5
:104620000B91139201E0202D0FD020000A2100F001
:1046300053F901357E193031317020000A2100F024
:104640004BF926000400092EEDD8129B44469846EB
:104650000B9BAC461900139B55464E469A46149F39
:104660000C9B0291069343460593534604930A23F9
:104670000393634677E50B9B1B680893002B03D1DC
:1046800010339843002937D16123820600D5412396
:10469000DBB20A3B0B93434610A989461F221293B3
:1046A00053464A44AA46B146149415976446804638
:1046B0001700089D0A9E139308E03033DBB20134E3
:1046C0003B55B5420ED3202C0CD0050031002800FC
:1046D00000F002F9CBB20929EFD90B9A9446634452
:1046E000DBB2ECE7129B40469846139B55464E467C
:1046F0009A46A446159F149C43460593534604933B
:104700000A9B0690039300230293634682E5030607
:1047100013D50B9B1B88089368E502000C239A4372
:104720000A3B10000A9348E5002899D16AE70B9BE1
:104730001B68D9175A184A40D9E40B9B1B68089389
:1047400054E5030001330C93F9E520230A9A1A4338
:104750000A920C230A9A00219A43043310000A9308
:104760002BE50A9B0C9308230A930D230C9898437E
:1047700023E510230A9A9A430C9269280AD10A99D0
:1047800080230A00DB001A4010000A00194200D101
:104790008AE486E40A991C230A009A4380231000C5
:1047A0000A00DB001A4011000A9A1A4202D10A23B9
:1047B0000A9302E50A230A93D7E7C04600B585B0FD
:1047C0000391012102900093034813004A4202A979
:1047D000FFF7E8F905B000BD6D33001010B5094AC8
:1047E0000300146884B0002C08D001220091064810
:1047F000524203A9A047012004B010BD01F06CF89B
:104800000020F9E7781A00205D33001001480421E8
:10481000014B1847D00200203D480010142310B56A
:104820000100188804331B88984710BD162310B563
:104830000100188802331B88984710BDF8B5474619
:10484000CE4680B50F1E19D01423994604330400B8
:104850000025012698464B461888434621681B8848
:10486000984701C4431E9841013540420640AF427B
:10487000F1D13000C0BCB946B046F8BD0126F8E71A
:10488000144A936F9B0815D29066D166002905D013
:10489000FFE7FFE7FFE7516F106F704704B5802116
:1048A0000906C2175140002800D0C84304F0A8F8F8
:1048B000002104BD936F5B08FDD3F0B5946ED56EF7
:1048C000576F166FFFF7E0FF9466D5665767166758
:1048D000F0BD0000000000D0134A936F9B0813D274
:1048E00010665166002905D0FFE7FFE7FFE7516F2B
:1048F000106F704704B5002801D00020C04304F0B9
:104900007FF8002104BDC046936F5B08FDD3F0B56E
:10491000946ED56E576F166FFFF7E2FF9466D566FB
:1049200057671667F0BD0000000000D094464E4A5D
:10493000926F9208624601D230E0C046F0B54A4E0E
:10494000B56F6D08FCD3346E756E776F366F00F0FF
:1049500025F89446444A14665566576716676246BA
:10496000F0BDC0469446404A926F9208624601D21A
:1049700058E0C046F0B53C4EB56F6D08FCD3346EC0
:10498000756E776F366F00F04DF89446364A1466B0
:104990005566576716676246F0BDC046002B24DB9C
:1049A00011D000293EDA00B5C943404200D101319F
:1049B00000F038F8C943404200D10131DB43524294
:1049C00000D1013300BD002AEBD1002801D100291C
:1049D00005D00020C90FC90701D1C043410800B567
:1049E00004F006F80022002300BD00B500290ADB10
:1049F000DB43524200D1013300F014F8C943404276
:104A000000D1013100BDC943404200D10131DB4337
:104A1000524200D1013300F005F8DB43524200D18D
:104A2000013300BD002923D1002B18D1002A0CD05E
:104A3000BC460D4F38667A6600210023FFE7FFE78A
:104A4000FFE77A6F386F67467047002801D0074844
:104A5000010000B503F0CCFF0022002300BD0200DE
:104A60000B00002000217047000000D0FFFFFFFF77
:104A7000002B00D0BDE0130C26D1002AE7D080B473
:104A8000104F39667A66FFE7FFE730B4040C7B6F9E
:104A9000396F1B0423433B66FFE7FFE7FFE7C04690
:104AA00084B27B6F3D6F1B0423433B66FFE7FFE748
:104AB000C04600232C042D0C7A6F386F0019694111
:104AC000B0BC7047000000D0F0B594460025140E2D
:104AD00001D112020835140F01D112010435940FCF
:104AE00001D192000235D40F01D152000135D40B0F
:104AF0000134254F7C66254C3C660E0C93B2FFE7D3
:104B0000FFE7FFE73C6F6643360C7703BE4673430F
:104B1000DF0B5B04C01AB941130C7343DB18C91ACD
:104B2000CE086643360CB64493B273431F0F1B0185
:104B3000C01AB941130C73431F0B1B05C01AB941AE
:104B4000860D8F023E436643360C092D24DB520A44
:104B50007243801A7703460A6643360C16235B1BA2
:104B6000DE40DF40BF1964466643821B7046043551
:104B700006330100D940A840C01900D30131A24238
:104B800006D20023F0BD0000000000D0FFFFFFFFB1
:104B9000121B0130F3D3F1E709277F1BFE40644667
:104BA000A2B27243801A00D20139220C7243130C54
:104BB0001204821A99410B00704604351337010024
:104BC000F940A840801900D30131002B02D1A24244
:104BD0000AD2F0BD013000D30131121BFAD2013BE1
:104BE000F8D1A24200D2F0BD013000D30131121B36
:104BF000F7E7F0B51C0C00D080E00CB400251C0ACF
:104C000004D11B02160E3343120208351C0B04D1CB
:104C10001B01160F3343120104359C0B04D19B007A
:104C2000960F334392000235DC0B02D192185B41A0
:104C300001351C00971864410134464F7C66464C90
:104C40003C660E0CFFE7FFE7FFE7C0463C6F66439C
:104C5000360C7703BE4697B27743C01B00D20139AA
:104C6000C01B00D201399FB27743C91BC91B170C67
:104C700077437E04FF0B801BB941CE086643360C98
:104C80000C2D33DBB644120B1F053A431B0B97B2B6
:104C90007743C01B00D201399FB27743C91B170C61
:104CA00077433E043F0C801BB941860D8F023E4383
:104CB000664329277F1BFE400C3D7746AF40BF1956
:104CC00030BCA2B2ABB272437343801A9941220C3A
:104CD0007243130C1204801A994102000B00013731
:104CE000001BA941F9D2781E0021F0BD0C277F1BC3
:104CF000FE4077467F0BAF40FF19E0E700245D1CC4
:104D000007D0144F7D663966FFE7FFE7FFE7FFE74F
:104D10003C6F95B29EB265436643401BB141150C92
:104D20001E0C6543664336042F0C3E432D04401B86
:104D3000B141994204D202000B0020000021F0BDD5
:104D400001D19042F7D3801A994101349942F2D3AC
:104D5000F6E70000000000D0FFFFFFFF48404140A1
:104D6000484018B4114B5B68FC46019308BD04DF52
:104D7000B34F001018B40D4B1B68FC46019308BDDF
:104D800000DFBD4F001018B4084BDB68FC460193F0
:104D900008BD0CDF7552001018B4044B9B68FC462C
:104DA000019308BD08DF195100100000E80C002035
:104DB000FFB550404240504059404B40594000E000
:104DC000FFB5154F4C00640D03D0BC4204D10C0359
:104DD00014D80020090D09055C00640D03D0BC4205
:104DE00004D11C030AD800221B0D1B0501264B40D1
:104DF00009D44B4003D58B4200D18242FFBD99427A
:104E0000FCD19042FFBD0B43DB1803431343F5D0A5
:104E1000C9434918FFBD0000FF07000000B5FFF7B8
:104E2000CFFF804100BDC04600B5FFF7C1FF01D9EB
:104E3000002000BD012000BD00B5FFF7B9FF804193
:104E400000BD012040054A00121804D85A0012186B
:104E500001D80020704701207047002070470000F3
:104E60000021002805D17047C1174840401AFAD0E8
:104E7000C90713B5064B1B6898470CBC441CA240DD
:104E80001005120B0349091B09051943114310BDF5
:104E9000781D00201F04000010B54C00620D802317
:104EA000D218DB00D21A5B057E2A10DD9E3A13DA97
:104EB000CC170903490819435242D1406400013418
:104EC0001532202A05DAD0400843604310BD002087
:104ED00010BD0846604310BDC80FC018013810BD92
:104EE00018B4044B5B6AFC46019308BD24DFA1544F
:104EF00000100000E80C0020132370B51D78012D70
:104F000010D00BDD1B48FFF791FC1B4C01008022E9
:104F1000200000F007FC022D28D070BD174B164C66
:104F2000A364FAE7154B144C23606360A360E3604D
:104F300023616361A361E36123626362A362E3624D
:104F400023636363A363E36323646364A364E3642D
:104F500023656365A365E36523666366A366E3660D
:104F600023676367A367E367A364D6E7034BA36480
:104F7000D3E7C04653440000E80C0020814F0010E6
:104F800007B5604601880A0A0230DF2AFAD1C9B2A1
:104F9000820804D3028840880004104300E00068BF
:104FA000014A5050039007BDE80C00200FB403BC29
:104FB0000CBCF0B50124E407634000E0F0B50C0D33
:104FC000CF0F661E3605891B640503D3C9434042D3
:104FD00000D30131640D03D0661CF60A07D0E41B30
:104FE00000207F00791C89078912803C24031D0D55
:104FF000DF0F6E1E36059B1B6D0503D3DB4352424C
:1050000000D301336D0D03D06E1CF60A07D0ED1BE3
:1050100000227F007B1C9B079B12803D2D032F1BD2
:10502000661B58D4A446202E46DA20371400BC4014
:105030001D00BD40F24033412A4380185941CB0F37
:1050400005D0C943C04300226442504151416246E9
:105050004D0D28D10D0D07D100281FD02419404136
:105060004941013A0D0DF9D0640006D3013000D357
:105070000131002C01D140084000013A0BD4941CAE
:10508000E40A04D112051144DB071944F0BDD90725
:10509000204B194300E0D9070020F0BD0029DDD1E5
:1050A000002CDBD1F0BD0132C6074008CD072843F4
:1050B0004908002EE1D0D9E73C2E29DA203E4037BE
:1050C0001400BC4000D00124F24014431A00BB403D
:1050D0001C43D317ACE7AC46202F08DA2036040077
:1050E000B4400D00B540F84039412843A5E73C2FB6
:1050F0000CDA203F40360400B44000D00124F840D0
:1051000004430800B1400C43C117EAE7100019003E
:10511000002494E70000F07FF0B50C0D661E360504
:10512000891BE60A6405640D02D0651CED0A04D0F3
:10513000002001210905803C2403A4461C0D671EA4
:105140003F05DB1BE70A6405640D02D0651CED0A10
:1051500004D0002201231B05803C240377406444D3
:1051600097B484B296B27443070C7E43150C6F4318
:1051700080B26843361802D3012000043F1830047F
:10518000350C00197D41844688B29AB250430C0C0C
:1051900062431F0C7C438EB27E43921902D30126D8
:1051A0003604A4191604170C3618674101BC81B2E5
:1051B0009AB25143040C62431B0C5C4380B25843C7
:1051C000121802D30120000424181004130C4018F4
:1051D00063412D185E410020474106BC88B293B25E
:1051E00058430C0C6343120C544389B251435B186F
:1051F00002D301210904641819041A0C0918624128
:105200006D1856410020474118BCF902720D114338
:10521000F0026A0D1043ED020A0D03D16D194041F1
:105220004941013B124E9B1B7600B3420ED26D00EA
:1052300007D30130002671416646354301D140084D
:1052400040001B05C918E4072144F0BD0BDA013307
:1052500006D1013004D101314F0D01D04908F2E7E8
:10526000E1070020F0BD013631050020EBE700002A
:10527000FF030000F0B51C0D671E3F05DB1BE70AAE
:105280006405640D02D0661CF60A04D000220123D6
:105290001B05803C2403D0252D060026F6432E66F0
:1052A0001E096E66CE0FF619B44649004F0D02D0A6
:1052B0007E1CF60A03D000200021403F3F033E1B26
:1052C000B600B444013F7F05C91B49082E6F013663
:1052D00076089C02950D25437543ED137543AD1378
:1052E00001356D10F603761B0CB4CC02450D2C4332
:1052F000A2B2B3B25A43270C7B43350C6F43A4B21E
:105300006C431B1902D3012424043F191C041D0CF7
:10531000A4187D4124196D41009A91B2ACB2614349
:10532000170C7C432B0C5F4392B25A43A41802D350
:1053300001221204BF182204230C52187B41019C45
:105340006C431B19520ED9010A434401A01A81B2C1
:10535000B2B2514303145A43360C734387B27743B6
:10536000D617D21900277E4136049B191704160C54
:105370007F185E417316ED18F301002680337541E6
:10538000A90F06D16400690AE8055B0A184309D22F
:105390002FE00422944480337541A90AA8059B0A92
:1053A000184326D3404149412404009A019B0D0033
:1053B0005543641B4343E41A95B286B27543170CF8
:1053C0007E43030C5F4392B25A43B61802D30122C4
:1053D0001204BF183204330C52197B4152429C41D3
:1053E000002C02D40022013051414008CA0710436A
:1053F000490802B06246D7079210084BD218084BF2
:105400009A4203D212058918C919F0BD0020002A5A
:1054100001DC3900F0BD01331905F5E7FD0300009B
:10542000FE070000624618CA944600291ADAC0181E
:1054300061415B463B415C46B4405246FA402243E0
:1054400044464D4662416B41904699462B46B340D7
:105450003D41FC401C4352465B46A241AB41924653
:105460009B467047C01AA1414B463B414C46B44055
:105470004246FA40224354465D4662416B419246A1
:105480009B462B46B3403D41FC401C4342464B46A5
:10549000A241AB41904699467047002000217047D9
:1054A000002200B5203200F004F8080000BD000022
:1054B00000220B15F1D410B5944600F02FF8141407
:1054C000013400DA0021CB17134C20476244343AF0
:1054D0000CD40C2A07DA040091409040524220324A
:1054E000D440214310BDD843D94310BD203207D446
:1054F0000C469440524220321141D040204310BD0E
:105500000800C917203203D452422032104110BD86
:105510001800190010BD0000CD5400100A0DCC0F6A
:10552000531E1B05C91A520503D3C943404200D379
:105530000131520D03D0531CDB0A07D0121B00208F
:105540006400611C89078912803A1203014BD21A48
:1055500070470000FF03000051434343C9188C46C5
:10556000110C83B24B4310B4040C614392B280B26D
:10557000504362431C041B0C001910BC5941130416
:10558000120CC018514161447047491A002807D1D4
:1055900008467047C10FC90700D54042002817D000
:1055A000F44603B40B4B1B68984706BC81409E38F9
:1055B0004042803107D20B0607D04900490AC00596
:1055C0001043084360470130F8E7490A8902F5E7CC
:1055D00070470000781D0020034BDB6FFC46184726
:1055E0007CDF7D5600100000E80D0020132310B56D
:1055F00012481C78FFF71AF90100012C0AD003DDCC
:1056000080220F4800F08EF80E48FFF707F90E4B86
:10561000186010BD0A4C5422200000F083F80B4B98
:105620006365A365E36523666366A366E366236734
:105630006367A367E3672362E361E5E7534600001E
:10564000E80D00204C330000781D0020515600105A
:1056500007B5604601880A0A0230DF2AFAD1C9B2CA
:10566000820804D3028840880004104300E00068E8
:10567000014A5050039007BDE80D0020C30FDB071F
:1056800041000A0E07D0FF2A08D00909054A8918E7
:105690001943400770471900002070470249C91894
:1056A000FAE70000000000380000F07F70B5040049
:1056B0000A4E300003F0BCF9200002F0D5FC0500D2
:1056C000300003F08DF9002D05D0054B2C199C42BC
:1056D00001D8280070BD0348FDF72CF9840B002089
:1056E00000000420F08C001070B50400054D280067
:1056F00003F09EF9200002F0C1FC280003F070F9CD
:1057000070BDC046840B002001480421014B18479E
:10571000E00200203D480010014B1B6818470000C4
:10572000E0020020014B5B6818470000E002002007
:10573000F0B5C64607000D00160000B5002A32DDA0
:1057400000216A1E90466A5C037C4C1C00200A2AD9
:105750000CD0A6421AD043461B5D21000D3B5A4295
:1057600053416A5CDBB24C1C0A2AF2D1002BF0D107
:10577000814203DD091A3B682818984702210B482B
:105780003B689847A64207D02000E4E7864203DD45
:10579000311A3B6828189847AD19013D2B780D3B0D
:1057A0005A4253413B7480BCB846F0BD688D00102E
:1057B000F8B5CE4647460B6806000D0080B5802B35
:1057C00007D05A1C2A60ED182E71C0BCB946B046ED
:1057D000F8BD134B1C68002C1BD0124B98460B1DB8
:1057E000994602E0E468002C13D02768002FF9D016
:1057F00043461B68002B01D09C42F3D1637C2A688E
:10580000002B09D020004946FFF792FFE468002CE6
:10581000EBD101220023D5E711004846B847E1E764
:10582000E8130020F0130020F0B5CE46474680B5BF
:1058300083B06B46DE1CD02330701B061C68234BE4
:10584000804601A91800994603F0E2F8071E27D008
:105850001F4B1C68002C2FD01E4D02E0E468002C6A
:1058600012D02268002AF9D02B68002B01D09C426C
:10587000F4D1637C002B0FD0200001223100FFF710
:1058800057FFE468002CECD1002F15D1404603B03F
:10589000C0BCB946B046F0BD012130009047DDE7FD
:1058A000019B9C420CD0484603F0C2F8084B1C6890
:1058B000002C01D00127CFE7484603F091F8E5E737
:1058C000034B1C68002CC7D1E0E7C0468C0B0020BE
:1058D000E8130020F0130020F0B5DE4657464E4690
:1058E0004546E0B585B0070002F0AEFED0231B06AA
:1058F0001C68404B03AD060029001800019303F01B
:1059000087F88346002860D03B4B1C689A46002CE1
:1059100057D03A4B98460A23994602E0E468002C97
:1059200024D02268002AF9D043461B68002B01D0FE
:10593000A342F3D1637C002B2ED03200390020002B
:10594000FFF7F6FE4B462B70637C2268002B2CD0B1
:10595000237C002B2DD10221294890472B780D3B29
:105960005A4253412374E468002CDAD15B46002B81
:1059700027D153461C68002C06D06368002B1CD02E
:105980009847E468002CF8D1300005B0F0BCBB4665
:10599000B246A946A046F0BD3100380090474B46BC
:1059A0002B70637C2268002BD2D101212800904704
:1059B000B4E7012128009047D0E7E468002CDCD14F
:1059C000E2E7019803F00CF8D3E7039B9C420AD06E
:1059D000019803F02DF8084B1C689A46002CF0D073
:1059E00001239B4695E7044B1C689A46002C90D1F6
:1059F000CAE7C0468C0B0020E8130020F0130020FB
:105A0000688D00100D4A1368002B13D0834202D119
:105A100009E0984208D01A00DB68002BF9D1002970
:105A200000D0D06070471A000029FBD1DB68D3603A
:105A3000C160F7E70029F5D01060F3E7E813002014
:105A4000F0B54646D6464F46D023C0B51B061F6864
:105A5000314BA2B004000D00180001A9984602F0D5
:105A6000D7FF061E23D001268422002101A8FFF7BC
:105A700053FE2B002200294801A9FEF79FFE019B3F
:105A80008146002B1CD1264B1C68002C06D0636875
:105A9000002B13D09847E468002CF8D1002E34D1A5
:105AA000484622B0E0BCBA46B146A846F0BD019BCC
:105AB0009F42D9D0404602F0BBFFD4E7E468E4E758
:105AC000174B1D689A46002D23D0164F02E0ED6853
:105AD000002D12D02C68002CF9D03B68002B01D08F
