:020000041000EA
:1000000000B5324B212058609868022188439860DF
:10001000D860186158612E4B002199600221596106
:100020000121F02299502B49196001219960352056
:1000300000F044F80222904214D00621196600F024
:1000400034F8196E01211966002018661A6600F04E
:100050002CF8196E196E196E052000F02FF8012189
:100060000842F9D1002199601B49196000215960AB
:100070001A491B48016001219960EB211966A021F2
:10008000196600F012F800219960164914480160C1
:100090000121996001BC002800D000471248134993
:1000A000086003C880F30888084703B5996A0420EC
:1000B0000142FBD001200142F8D103BD02B5186610
:1000C0001866FFF7F2FF186E186E02BD00000240BE
:1000D000000000180000070000035F00212200005C
:1000E000F4000018222000A00001001008ED00E03C
:1000F00000000000000000000000000074B24E7A12
:1001000000200420F7010010C3010010C5010010F9
:10011000C1010010C1010010C1010010C101001097
:10012000C1010010C1010010C1010010C701001081
:10013000C1010010C1010010C9010010CB01001065
:10014000CD010010CD010010CD010010CD01001037
:10015000CD010010CD010010CD010010CD01001027
:10016000CD010010CD010010CD010010CD01001017
:10017000CD010010CD010010CD010010CD01001007
:10018000CD010010CD010010CD010010CD010010F7
:10019000CD010010CD010010CD010010CD010010E7
:1001A000CD010010CD010010CD010010CD010010D7
:1001B000CD010010CD010010CD010010CD010010C7
:1001C00000BE00BE00BE00BE00BE00BE00F04BF888
:1001D000103800BEF2EB8871FC9F001024A00010C4
:1001E0003402001090A31AE700202149086006C8D5
:1001F00081F3088810471F48006800282FD10DA4FC
:100200000ECC002902D000F012F8F9E71A491B4A77
:10021000002000E001C19142FCD1194988471949E9
:1002200088471949884700BEFDE701C901C29A42C3
:10023000FBD3704724A00010C000002084080020D9
:10024000E8A700100000042000000420E8A7001028
:1002500000100420001004200000000070470B482C
:1002600005F012F90047EFF30580C0B270470000B7
:1002700008ED00E0000000D088080020601E00208B
:100280003D320010190F00105D330010575600006A
:1002900006005250ABB360536C9A001006005250E7
:1002A000861C03027C9A0010060052505422A29D24
:1002B0008C9A001005005250DE65F468E8A7001023
:1002C000F8B5C046044B10B5002B03D003490448D1
:1002D00000E000BF10BDC04600000000301B002041
:1002E0001898001010B52148214902680C78630065
:1002F0001B19DB00D033D21880235B01134380220B
:1003000012061A601A601B4B1A78002A17D00022B6
:10031000194C1A70237800680A78A021C9058C4608
:1003200008329B019200634482181A602378134AB2
:100330009B0112686344DA620020002110BD012293
:100340000D4C1A70237800680A78A021C9058C46E4
:1003500008329B019200634482181A602378084A8D
:100360009B0112686344DA62E6E7C046481B00203E
:100370005C1E0020551E0020581E00202414002062
:100380002014002010B5040001F022FB002800D149
:1003900010BD64212000024A01F0C2FBF8E7C0460C
:1003A0008503001010B5040001F012FB002800D1F5
:1003B00010BD0A212000024A01F0B2FBF8E7C04656
:1003C00085030010F0B5C64600B55A4F86B03B789D
:1003D000002B5DD0584B1968584EB268002A0CD0DB
:1003E000002000239B00CB181A68013012BA1A6053
:1003F000B268C0B203009042F4D308684308434097
:100400009C0863401C0963401C0A63401C0C634049
:100410000124A4461C40A04664461C4234D1F6691F
:10042000030F9E4237D00F2B35D04548454902680F
:100430000C7863001B19DB00D033D21880235B01DA
:100440001343802212061A601A603B78002B47D0B3
:10045000A0244346E405A4463B703B4B1A78006851
:1004600009789201083189006244411811601A78B4
:100470003649920109686244D1621A780123A021A9
:100480009340334AC9058B5006B080BCB846F0BDD6
:100490002E4B1968A0E7C0239B0218423DD002F002
:1004A00087F9060002F0CCFB00232A4A049005914C
:1004B0000498059912184B4199422AD826D0002158
:1004C0000291019124493000009102F075F91E4B10
:1004D0001A780123A02193401D4AC9058B50D3E708
:1004E000A0246346E405A4463B70174B1A780068C5
:1004F00009789201083189006244411811601A7824
:100500000D49920109686244D162E1E70499914280
:10051000D5D901225242D317D1E7104B4004400FE6
:1005200018700F4B9200186805F054FF01220D4B14
:100530001A70B4E7551E00202014002088080020FF
:10054000481B00205C1E0020581E002024140020A0
:100550001C04000010270000E50200105D1E0020B2
:100560005C1B00205F1E0020F0B5D6464F46464675
:10057000C0B57B488AB006F00FF87A487A4B02681B
:100580007A495A40120C12040A600068784A794C81
:1005900042401204120C0A60774A784912685340AC
:1005A0001B0C774A1B041360764B2360206808F00D
:1005B0006BFA01210600206808F048FA724DC0B2BB
:1005C0002870724805F0E8FF226829784B005B1814
:1005D000DB00D033D21880235B0113438022120644
:1005E0001A601A6027682B780022DBB29846002335
:1005F0004146994638000093013308F0BBFA644B3A
:100600000020F9184B1E9941063101F02BFD002204
:100610000121002001F03EFD4B4680220593F82386
:1006200052025B0202920393C02310221B0302A911
:1006300006A8049305F0CEFEF31CF2011B0313433E
:1006400006A9102202A8079305F0C4FE514B05200D
:10065000049303F00FF805F0E9FD4F4905F0DDFDC7
:10066000824605F00BFE83B299464A460023002AD3
:100670000DD0484605F0DAFD011C504605F0C7FDD7
:100680008721C90505F0CCFD05F0F8FDC3B24A4647
:100690001B02120413433200012641463800029324
:1006A00002AB08F0A9FA414633008B403A683B4858
:1006B00013433B6005F070FF8822394B52011A60EA
:1006C000012008F0E7FA374FC0B238703B78364A5D
:1006D000DB021340354A36481A43904605F05CFF6A
:1006E000A020C00584460020324A3B781168324A77
:1006F0009B0192686344186059609A6042462F4893
:100700001A6105F049FF3B782D489E402D4B1E6035
:1007100005F042FF2C490C2003F0B4F82B4805F0FB
:100720003BFF01210C2003F08BF8294805F034FF32
:100730002268297827484B005B18DB00D033D21899
:1007400080235B011343802212061A601A6005F0B1
:1007500023FFFFF737FE642002F050F9FBE7C046A5
:1007600018980010840005400000FF038410054025
:10077000FF030000481B0020700005402C9C001067
:1007800070100540000030505C1E002034980010AE
:100790000000E0AF00000D800000E1484498001028
:1007A00000000340581E0020FF7FE0FF29000600E4
:1007B0005C98001020140020880800206C9800101D
:1007C0007C98001014240050C50300109898001065
:1007D000BC980010D49800100C4B70B59C68A40015
:1007E000200005F0BBFD0A4B06001860200005F054
:1007F000B5FD084B05001860200005F0AFFD064A66
:100800001060002232602A60026070BD88080020FB
:100810005C1B00202014002024140020012270B54D
:100820000E4B0F4D00242A606B6033220D4B0E4E91
:10083000AA60EB6091230D4A9B002A616B619622AE
:1008400002235200AA61EB612100300004CD013483
:1008500005F0C6FF082CF7D170BDC046A086010088
:1008600088080020409C0000E49800101027000039
:10087000F8B50E2001F020FC0F2001F01DFC0D202A
:1008800001F01AFC0C2001F017FC0B2001F014FC05
:10089000102001F011FCD02480232406DB01A36288
:1008A000802580236D021B02A362042165620D2056
:1008B00001F0D8FB04210C2001F0D4FB04210B2013
:1008C00001F0D0FB002201210E2001F0E3FB002209
:1008D00001210F2001F0DEFB01220021002001F0A8
:1008E000D9FB01220021012001F0D4FBFA200C4A9F
:1008F0000C49C0000C4B906651671E6801231F0015
:10090000B7430A4E3760D06788201150084A09481B
:1009100012689343084A136005F03EFEA561F8BDD6
:1009200000000540FF03000064000540641005401E
:1009300078000540F89800107810054010B50222A4
:100940001321122000F0D8FE064C02222060142150
:10095000152000F0D1FE044B22681860034B18608C
:100960005A6010BDCC0C0020C80C0020B00A00203A
:10097000F8B5264D0121286801F018F8244C012112
:10098000206801F013F8234E28683378002B18D123
:10099000214EF16801F06EF83169286801F074F8B1
:1009A000F168206801F066F83169206801F06CF8A0
:1009B0007168286801F04AF87168206801F046F80B
:1009C000F8BD3378154F013B5B00D95B01F052F85D
:1009D00033782868013B5B00D95B01F055F8337828
:1009E0002068013B5B00D95B01F044F83378206854
:1009F000013B5B00D95B01F047F82868002101F05A
:100A000025F80021206801F021F8D9E7C80C002062
:100A1000CC0C00205D1E0020880800201C9C0010CB
:100A2000F0B5CE46474680B5012183B0924802F02A
:100A300039FEFA21914CC900206800F0D3FF002153
:100A4000206801F003F80121206800F0AFFF0121C8
:100A5000206800F099FF8A4E64213200206801F07E
:100A60005FF8D021012209064B689B0B1A42FBD08C
:100A70000021206800F09AFFFA20400001F0BEFF3C
:100A80000121206800F092FF0021206800F07CFF27
:100A900032006421206801F043F8D02101220906C8
:100AA00015004B689B0B1D401A42F9D100212068AC
:100AB00000F07CFFFA20400001F0A0FF0121206837
:100AC00000F074FF6F48276801F00AF8FA2103006C
:100AD000012238004900009500F0FAFE002120684C
:100AE00000F052FFFA212068490000F07BFF664FBA
:100AF0000A213A00206801F013F8D02101220906EA
:100B00004B689B0B1A42FBD10021206800F04EFF7E
:100B1000FA20400001F072FFFA215C4DC9002868FC
:100B200000F060FF0021286800F090FF0121286894
:100B300000F03CFF0121286800F026FF320064210C
:100B4000286800F0EDFFD021012209064B68DB0B7D
:100B50001A42FBD00021286800F028FFFA2040004C
:100B600001F04CFF0121286800F020FF00212868D7
:100B700000F00AFF32006421286800F0D1FFD02184
:100B80000122090616004B68DB0B1E401A42F9D100
:100B90000021286800F00AFFFA20400001F02EFF33
:100BA0000121286800F002FF2B683648984600F0C3
:100BB00097FFFA210300012249004046009600F009
:100BC00087FE0021286800F0DFFEFA21286849002E
:100BD00000F008FF3A000A21286800F0A1FFD021A8
:100BE0000122090616004B68DB0B1E401A42F9D1A0
:100BF0000021286800F0DAFEFA20400001F0FEFE35
:100C00000121206800F0D2FE2368214F98467B69BD
:100C10001C48994600F064FF012203004946404603
:100C2000009600F055FE0121286800F0BFFE2B68F9
:100C300014489846BF6900F053FF012203003900B1
:100C40004046009600F044FE2068012100F0AEFE10
:100C50002068002100F004FF2868012100F0A6FEB2
:100C60000021286800F0FCFE02F012FD03B0C0BCB9
:100C7000B946B046F0BDC046409C0000C80C0020FC
:100C8000850300100000FA44A5030010CC0C0020DE
:100C900088080020F0B5DE4657464E464546E0B58A
:100CA00085B0FFF765FE914B1A689A461368190FD5
:100CB00000D1ECE05B0300D4F0E0D02380211B06E0
:100CC0004902996113681A0300D5FFE01A0DD2B2E8
:100CD0009146002286490A708022120213401F00AA
:100CE0000B780291002B00D0B9E002F0D1FC4B460A
:100CF000002B00D1A2E0BB467E4B7F4E0393012325
:100D000098464B4604250024019366E0DA0D94468C
:100D1000072291464F46D90A580211401A0A5B0928
:100D2000C00D3A403B40072900D1BDE08F017F1A3A
:100D3000FF00791A8F01B946704F4944B9464904FA
:100D400049446F4F3F687940090C6E4F0904396080
:100D5000072A00D1ACE09101891AC9008A1A9101D1
:100D600052186949520089464A4492B26449096856
:100D70004A4012046349120C0A60072B00D195E027
:100D80009A01D21AD200D31A9A019B185B4A5B04CB
:100D900091464B445D4A126853401B0C5C4A1B044D
:100DA0001360962263465200944500D9131C962284
:100DB0009BB233605200031C904200D9131C9BB2BB
:100DC0000222310073600398002300F01DFF02F03F
:100DD0005FFC019B0435A3422ED0029B1B78002BA5
:100DE00068D153461B6801345B59E4B25A085A4033
:100DF00091084A4011094A40110A4A40110C4A40E0
:100E00004146114282D03E483C4B02683D495A401F
:100E1000120C12040A6000683B4A04354240120476
:100E2000120C0A60394A126853401B0C384A1B04E2
:100E30001360019BA342D0D199465F464C46002FD8
:100E400009D1029B1B78002B09D102F021FC002C58
:100E5000F7D0A1464FE7534600221B681A60284886
:100E6000264B026827495A40120C12040A60006897
:100E7000254A42401204120C0A60244A1268534068
:100E80001B0C234A1B0413600023029A137005B045
:100E9000F0BCBB46B246A946A046F0BDD023802296
:100EA0001B0652025A61F2E700214AE7002371E76C
:100EB00000225BE7019B99465B46002BCBD1029B4E
:100EC0001B78002BCBD102F0E3FB18E7FFF7A8FD5E
:100ED000FFF74EFDFA20400001F090FD01210D4882
:100EE00002F0E0FB53461B681B68EFE65C1B00202A
:100EF0005F1E0020B00A0020C00A00200000FF038F
:100F00008400054084100540FF0300007000054088
:100F1000701005408813000070B505F06DFC4C485A
:100F200001F06CFD4B4805F037FBFFF777FC4A48B2
:100F300005F032FBFFF750FC484805F02DFB484810
:100F400001F05CFD3221474805F04AFC8822464BFF
:100F500052011A60FFF7F2FC444805F01DFBFFF751
:100F600007FD434C200005F017FBFFF781FC4148CB
:100F7000414B026841495A40120C12040A60006851
:100F80003F4A42401204120C0A603E4A3E48126830
:100F900053401B0C3D4A1B04136005F0FDFAFFF79C
:100FA0003FFD3B4805F0F8FAFFF7E2FC200005F0B2
:100FB000F3FAFA20D024800001F020FD2406354801
:100FC00005F0EAFA63689B0706D4012502F060FB8E
:100FD00063685B081D42F9D0FA20D0248000240603
:100FE00001F00CFD63689B0706D5012502F050FB5C
:100FF00063685B081D42F9D1FA20D02480002406E2
:1010000001F0FCFC63689B0706D4012502F040FB5D
:1010100063685B081D42F9D0FA20800001F0EEFC05
:101020001D4807F051FE0E4801F0E8FC1B4B1C4820
:10103000D96905F0D5FB0121094802F033FB02F024
:1010400027FBFFF727FE642001F0D8FCF7E7C04636
:10105000B80B00000899001018990010289900108A
:10106000881300003C9900100000034040990010D4
:1010700054990010840005400000FF0384100540CF
:10108000FF030000700005406899001070100540D3
:101090007C9900108C9900106905001088080020C8
:1010A000B499001070B5040008200D0005F056F941
:1010B000236845600360206070BDC046030000687F
:1010C00010B5002806D0026844681A6005F064F97B
:1010D000200010BD01246442FAE7C046A022F8B502
:1010E0004746CE46114BD205D65880B5D650104B48
:1010F000002499460023012798460E4DA9443B0041
:10110000A3401E420AD042462868C3001B18DB00D9
:101110004B445A719B6C002B00D098470134043526
:101120000F2CECD1C0BCB946B046F8BD0C04000091
:10113000B4FDFFFFAC1D0020F0B557464546DE4626
:101140004E46E0B5A54FA64C3D7883B0002D00D0AB
:1011500017E1082388208021012601222360A14B6A
:1011600049042350043025500430255004302150C8
:1011700004302550043025500830255018302650B2
:101180005242083022500C30235004302550043095
:1011900025500430215004302550043025500830AB
:1011A00025501830616062632364E164E267A560E2
:1011B000E5606561E6626564A56425656565E5656C
:1011C00066672650083022500C30235004302550DA
:1011D000043025500430215004302550043025506F
:1011E0000830255018302650083022500C3023503B
:1011F000043025500430255004302150043025504F
:101200000430255008302550183026500830225020
:101210000C30235004302550043025500430215028
:101220000430255004302550083025501830265001
:10123000083022500C302350043025500430255003
:101240004C302550043025504C38215080218900E5
:1012500065500431655008316550183166500831C9
:1012600062508E229200A3508F239B00E5500433DE
:10127000E550B93A0C332E39E018FF3AFF3905F042
:10128000A3F83E70002D00D19CE0574BE25C082390
:10129000002A00D19AE0554AA25C002A2ED0032BE6
:1012A00021D0534AA25C002A00D18DE0042B1AD031
:1012B00092229200A25C002A00D189E0052B12D074
:1012C0004C4AA25C002A00D184E0062B0BD04A4A8B
:1012D000A25C002A00D17FE0072B04D0474B0727F0
:1012E000E35C002B0BD001235B429946484603B0D8
:1012F000F0BCBB46B246A946A046F0BD022700217D
:101300003F4807F0A3FBB9460600431C4BD000231F
:101310009A463B4B01909B46012007F0BBFC012302
:101320001A0082409846374B05001A600B20364958
:1013300002F0A8FA01210B2002F082FA91222B0080
:10134000920094464246594692339B00E3185F60F0
:10135000E31963441A70FB00DB19DB00E218116328
:10136000514651632949D563ED020D4001999663B9
:10137000C9030D4309210D43156442460434E2526A
:10138000B4E72368002BAED091229200A25C002A21
:1013900018D0012BA7D0144AA25C002A16D0022B29
:1013A00000D078E79FE70121194807F04FFB082399
:1013B0009C4684446346019301239A46144B0600DD
:1013C0009B46A9E700279AE7032798E7012796E7B6
:1013D000042794E7052792E7062790E75B1E002085
:1013E000601B002019801F0045020000460200001B
:1013F00047020000490200004A0200004B020000C0
:101400000000205004240050DD100010FF7F00FF7A
:1014100000003050F0B5CE4600B584B00390039A7A
:10142000764FD3009B18DB00FB181B69002B18D0EC
:10143000039AD3009B18DB00FB189B69002B10D08C
:10144000039AD3009B18DB00FB181B69039A002B3F
:1014500000DAA3E0D3009B18DB00FB181B69002B0C
:1014600003DC04B080BCB946F0BD039AD3009B18DE
:10147000DB00FB18DB6A1800994604F033FB0022FE
:101480005F4B04F0B6FA00225E4B04F0A9FA0200AA
:101490000B0000205C4904F0ACFA04F03BFB04F0C4
:1014A0001DFB039A0400D3009B18DB00FB1898690E
:1014B0000D0004F013FB22002B000090019100208E
:1014C000524904F096FA02000B000098019904F0CA
:1014D00099FA22002B0004F083FA04F03FFB04F099
:1014E000A5FE04F0D1FE02000B000020484904F0E4
:1014F00080FA0022424B04F06AFA00220023040022
:101500000D0004F0D7FA002801D1002400252000A6
:10151000290004F0FFFA0600814501D14B465E1E0A
:10152000039AD3009B18DB00FB18D86904F07EFEF9
:1015300004F0AAFE02000B000020354904F059FA1D
:1015400000222F4B04F043FA0022002304000D0078
:1015500004F0B0FA002801D1002400252000290061
:1015600004F0D8FA3400864200D20400864232D811
:10157000039AD3009B18DB00FB185A6A01325A62A7
:10158000039AD3009B18DB00FB18DA79DC62640055
:1015900014439A79640014435C6462E7D3009B1897
:1015A000DB00FB185A6A511E5962002A1DDD039A9E
:1015B000D3009B18DB00FB18D86A039AD3009B1852
:1015C000DB00FB18DA79D8624000997902435200B7
:1015D0000A435A6445E7039B4946D800C018C00037
:1015E00028303818FFF75EFDCAE7039BD800C01803
:1015F000C00028303818FFF761FDDEE7601B0020CF
:10160000000024400000F03F006AF840000049401C
:1016100080842E41F8B5C4004546DE4657464E4606
:101620002318DB009B46E0B52E4D8046AB445B465D
:10163000DB6A89469246002B1DD15B46186A04F08E
:10164000F5FD04F021FE02000B000020264904F005
:10165000D0F90022254B04F0BAF90022002306003D
:101660000F0004F027FA00282FD03000390004F0D2
:1016700051FA5B46D8624346A020E1185346C005A4
:101680008446C90069188B64CB6B8A6B486B9B01DD
:1016900092006344002821D11860154884466244B2
:1016A0005A604A469A600A6C4444E4001A61220077
:1016B0004432AA18DA6301232D1901206B71F0BCA2
:1016C000BB46B246A946A046F8BD0026002730001A
:1016D000390004F01FFA5B46D862CCE7002018609E
:1016E0000448DBE7601B002080842E41000024407A
:1016F0001000205010003050F0B5D6464F464646F8
:10170000C0B58AB005000E00FFF716FDC3001B1818
:10171000694CDB00E4180700206BB54268D96749C3
:1017200007F0B2F9A36B80229A4600230593F823B1
:1017300052025B0202920393C0238146256B02ACE6
:101740001B031022210006A8049304F043FE4B461D
:101750004A460D33D2011B03134306A91022200071
:10176000079304F037FEFA23DB030293544B300057
:101770000493544BEB185A1E9341063398461900B4
:1017800000F070FC4146701C00F06CFC012332003C
:101790009846514628000093013307F0EBF9710198
:1017A000802653463605B4465B005344DB00EA18F6
:1017B000DC321368444803400B43334313606346F1
:1017C000059E4A4606400E431E435146230028000C
:1017D000059607F011FA434651468B402A68134399
:1017E0002B6038000AB0E0BCBA46B146A846F0BD4E
:1017F000364907F049F9A36B80229A4600230593E6
:10180000F82352025B0202920393C0238146266BA7
:1018100002AC1B031022210006A8049304F0DAFD99
:101820004B464A460D33D2011B03134306A910222F
:101830002000079304F0CEFDFA23DB030293204B34
:10184000280004931F4BF3185A1E93410633984601
:10185000190000F007FC4146681C00F003FC01235E
:101860002A009846514630000093013307F082F970
:101870006901802553462D05AC465B005344DB00CF
:10188000F218DC321368104803400B432B431360FB
:101890006346059D4A4605400D431D4351462300BE
:1018A0003000059507F0A8F9434651468B40326851
:1018B0001343336095E7C046601B0020609C001016
:1018C00000000C400000E0AF1FFCFFE33C9C001058
:1018D000F0B5DE4657464E46454684461000802207
:1018E000E0B5D20583B0934244D26246013241D082
:1018F0006246244CD200A04692466244D200424442
:1019000000945479002C35D1146B966B002921D0AA
:10191000320001255F000123103295400C9A994650
:10192000331D52009B0090469B4603000022080096
:1019300041469846019646464B463E4376001E4336
:1019400063681D42FCD15B4601321E517F189042F4
:10195000F1D1019E01221836B24063681A42FCD0D0
:101960005346009A634494460022DB0063440120FE
:101970005A7100E0002003B0F0BCBB46B246A94655
:10198000A046F0BD601B002010B50C00C200064B45
:101990001218D2009A18D171D16A93794900214363
:1019A00049001943516410BD601B002010B50C00A4
:1019B000C200064B1218D2009A189171D16AD379DD
:1019C0004900194349002143516410BD601B0020A8
:1019D000C200034B1218D2009B1898797047C0467A
:1019E000601B002070B50600080004F01FFC04F026
:1019F0004BFC02000B000020114903F0FAFF00220B
:101A0000104B03F0E4FF0022002304000D0004F05B
:101A100051F8002801D1002400252900200004F0FD
:101A200079F8F2009219084BD2009B18DA79D86243
:101A3000400010439A7940001043586470BDC0467E
:101A400080842E4100002440601B0020C200034B14
:101A50001218D2009B1859617047C046601B0020C5
:101A6000C200034B1218D2009B18D9607047C046C1
:101A7000601B0020C200034B1218D2009B18D961D2
:101A80007047C046601B0020C30070B51B18114E84
:101A9000DB00F6180800316204F0C8FB04F0F4FB28
:101AA00002000B0000200C4903F0A3FF00220B4BA7
:101AB00003F08DFF0022002304000D0003F0FAFF65
:101AC000002801D1002400252900200004F022F87C
:101AD000F06270BD601B002080842E410000244015
:101AE00070B504F0D1FB02000B0000200A4903F09E
:101AF00080FF0022094B03F06AFF0022002304004C
:101B00000D0003F0D7FF002801D100240025290093
:101B1000200003F0FFFF70BD80842E4100002440B0
:101B2000F0B54F464646D646C0B5C600314F3418CC
:101B3000E4003C19637905008946904682B0002B89
:101B40004DD123799A46002B42D0E36A002B1DD158
:101B5000206A04F06BFB04F097FB02000B000020EE
:101B6000254903F046FF0022244B03F030FF0022FA
:101B700000230090019103F09DFF009A019B002833
:101B800034D01000190003F0C5FFE062A0204246E7
:101B9000C00584467319DB00FB189A64DA6B996BF5
:101BA000586B92018900624400281BD110601448D0
:101BB000844661445160494691601B6C7619F60079
:101BC000136133004433FB18D3630123BF197B71C6
:101BD000504602B0E0BCBA46B146A846F0BD00236C
:101BE0009A46F5E7002010600648E1E7002200234E
:101BF000C7E7C046601B002080842E4100002440BF
:101C00001000205010003050F0B557464E46454663
:101C1000DE46E0B58BB090469946D31D6A46DB0898
:101C2000DB00D21A00AF954642466B468C466946A9
:101C300092007B62D31DDB08DB00C91A8D46396236
:101C4000C91A8D463961016803008A464146F86128
:101C5000002900D167E19B46002561467B6A48194F
:101C600001265D449B46CB4C8918BA6104CDD30054
:101C70009B18DB00E31804C8DB68D31A5A425341AF
:101C80001E408842F2D15B46BA697B62002E00D0CA
:101C900049E15346DB005344DB00E3185B69BB6159
:101CA0004346002B00D1D2E13B6AFD691E003B692F
:101CB0006146DA46AC469B46130063447B620023D0
:101CC0007B61434628008846B4465146BB600268A3
:101CD000D3009B184246DB00E3181668DB68F51A50
:101CE000EA17AD185540624615605A4615600268FD
:101CF000B3429B419246D2005244D200A218D66011
:101D000006685B42F2009219D200A218D66AD3711B
:101D100076000B70334396795B003343536402685B
:101D2000D3009B18DB00E3185B69BA699A4200D9BB
:101D3000BB617B69AB4200D27D6104239A467B6A1A
:101D40000430D0440131D444D3449842BFD17D699A
:101D5000BB682800984603F0C1FEB860F9603221E4
:101D6000280003F0EFFBF9690A68D3009B180022F2
:101D7000DB00E3185B697A617B60002B00D04CE1EB
:101D80003B6AFE691D0001239B4623002C009A46F6
:101D90003D60326801CCD3009B185A46DB005344A7
:101DA0001A6108CEDD00ED18BB69ED00584303F061
:101DB00095FEBA68FB6803F01CFE03F0CFFE7B6A59
:101DC0005544A861B342E4D17B6854463D68002B7A
:101DD00000D030E17B69002B48D00023A346BB61D3
:101DE0006D4BBB6000263C69FD690AE023685344E3
:101DF00023604B46002B20D1013604350434464580
:101E00002AD03A6AB300D1584B009A460F29EDD92F
:101E10002868C3001B18DB005B445A79002A05D1EF
:101E20001B79002B02D0BA68FFF7F4FB52462368F7
:101E30009B1A23604B46002BDED059462A68D300FC
:101E40009B18DB00CB185B79002BF7D101368B4652
:101E5000043504344645D4D14B46002B45D0BB69EC
:101E60007A690133BB619A42BCD15C4605200021EE
:101E700000F074FD00239A463B6900269B46FD69ED
:101E800006E04B46002B1FD101360435464553D0A2
:101E90002A68D3009B185246DB00E3181A615A46A1
:101EA000B300D1580029ECD02868C3001B18DB0010
:101EB000E3185A79002AE4D11B79002BE1D0FFF70F
:101EC000A9FB4B46002BDFD02A68D3009B18DB0010
:101ED000E3185B79002BD7D02A68D3009B18DB006E
:101EE000E3185B79002BEFD1CEE75846FA69116809
:101EF000CB005B18DB00C3185B79002BF7D17B6A42
:101F000004329342F3D18346A9E74B46002B00D11C
:101F100073E001239C467B69E2449A4537D1052052
:101F2000002100F01BFD0120BD460BB0F0BCBB46FC
:101F3000B246A946A046F0BD4B46002B0CD1FA692B
:101F40001168CB005B18DB00E3185B79002BF7D13D
:101F50007B6A04329342F3D10021052000F0FEFC9D
:101F60000121FA697D6A494201CAC3001B18DB00DE
:101F7000E31819619542F7D17B69002BCFD000237C
:101F80009A46054B9B4643467B623B6A9846002631
:101F9000FD690BE0601B0020151400104B46002B60
:101FA0001AD17B6A013604359E42AED04246B30058
:101FB000D1580F29F2D92868C3001B18DB00E31899
:101FC0005A79002AEAD11B79002BE7D05A46FFF74D
:101FD00021FB4B46002BE4D02A68D3009B18DB0082
:101FE000E3185B79002BDCD02A68D3009B18DB0058
:101FF000E3185B79002BEFD1D3E70021FA69106871
:10200000C3001B18DB00E3185B79002BF7D17B6A58
:10201000013104328B42F2D87BE74A68D3009B1827
:10202000DB00E3185B697B60002B00D1A8E6430866
:102030007B617860A4E600261C002868210003F07C
:1020400081FA013601C5B045F7D15446C2E6F969B7
:1020500013008C460025002663440020BD60FE600E
:102060007B6280E6094A10B59446402483006344AD
:102070001A68C00062408034144080225201134329
:102080001C60034B9C466044416010BD04C001408D
:1020900000400140074B80009C4660440368C90033
:1020A00092000A435A400C231A4080235B010343E9
:1020B0001A60704704C001400123D02283401206F9
:1020C00093629361094A40219446830063441A68ED
:1020D000C0004A40803111408022520113431960F0
:1020E000034B9C46052360444360704704C0014095
:1020F00000400140EFF3108072B6034A1368002BD2
:10210000FCD0BFF35F8F70472C0100D0BFF35F8F0F
:102110000022024B1A6080F3108870472C0100D017
:10212000F8B5CE464746914680B5EFF3108C72B6AF
:10213000104D2B68002BFCD0BFF35F8FCB08C45C25
:10214000C7180720260001230840C6401A00324065
:1021500033420BD183401C433C70BFF35F8F2A6036
:102160008CF31088C0BCB946B046F8BD484601F0B3
:10217000F7F8C0462C0100D0F8B54746CE46884651
:1021800080B5EFF3108C72B61C4D2C68002CFCD07F
:10219000BFF35F8F9A4223D807210127894602E0C7
:1021A0000132934219D3D4080119045D4D4626002B
:1021B0001540EE403742F3D1AF4010003C430C7065
:1021C000BFF35F8F00220D4B1A608CF3108800283C
:1021D0000EDBC0BCB946B046F8BD01204042EFE777
:1021E000BFF35F8F00232B608CF3108801204042E7
:1021F0004346002BEDD0089801F0B2F82C0100D036
:102200000021044B044ABFF35F8F02C39342FAD10B
:102210007047C046000100D0800100D0044A107809
:10222000431CDBB2172B00D9102313707047C04634
:102230003802002010B5064B064C82B00100009316
:1022400018221F232000FFF797FF02B010BDC046E1
:10225000CC99001028140020024B18688007C00F8A
:102260007047C04600C00640F8B5040006200D00C7
:1022700001F000FA002847D02A4B80229C4244D02B
:10228000294BD2031A60294B29491A6010008B6828
:102290009843FBD1274B284AE31859424B418021F0
:1022A0005B0049000620995201F0E4F92900C000C2
:1022B00003F048F9C30906D0204A934229D90023E4
:1022C0001F4F204901E0402701212600802561623F
:1022D000A36200232C36AD0135432B60062001F0AC
:1022E000C9F93900800003F02DF96022E36A5340F8
:1022F0000E321A4080235B0133431A60124B236372
:1023000010232B600D3BA364F8BD074B12041A6029
:10231000B9E77F220240013252089F011900BF181D
:102320001300D2E70080034000E0004000F00040CE
:1023300000C000400080FCBF481E0020FEFF0000DF
:10234000C0FF3F00FFFF00000103000083680B484F
:1023500010B58446614462441201090159189B1862
:102360005C684A680120944201D802D00020C0B2C3
:1023700010BD1A680B689A42F9D8F7E7FFFFFF0F04
:1023800040BF002000217047F8B557464E464546ED
:10239000DE46E0B598460CAB1C780DAB1B78070009
:1023A00091469A460668002C57D1B47B002C3AD04F
:1023B000650031682D19033D49194B78B373002B23
:1023C00000D1F37300238B704B700B702D4BE21810
:1023D000BB6812019B184A461A6042465A600A9A24
:1023E0009A600B9ADA6000238B704B700B70737BD2
:1023F0009B46002B24D0220073685946B06898474A
:102400005B465B0032685B44033B5519D2180028D9
:102410000FD05B46AB701378002B24D15B46147051
:1024200073735C450DD0F0BCBB46B246A946A046CE
:10243000F8BD94702B78002B00D053705B462B7046
:1024400074734A464346387D00F05AFC051E11D18C
:102450000E9B002BE7D01D70E5E7650031682D1954
:10246000033D4919B2E76B705B46147073735C45AA
:10247000D9D1E6E75346002BEAD12100386800F0B5
:10248000A1FEE5E7FFFFFF0FF0B5DE4657464E46DB
:1024900045468346E0B50027664B8200D65891B08A
:1024A00000F0CEFB726806900791EFF3108972B6C8
:1024B0001368002BFCD0BFF35F8F3068437B9A46D4
:1024C000002B0DD17368BFF35F8F52461A6089F3FA
:1024D000108811B0F0BCBB46B246A946A046F0BD7C
:1024E000B268554B904653441B01984443465C6880
:1024F0001B6825000A930B941C00069A079BA41ADC
:102500009D41002D0DDD0A9A0B9B584600F0F8FB0B
:102510007368BFF35F8F1F6089F310880028D8D0DD
:10252000BEE7002D01D1002CEDD1002100F0B4FD5B
:1025300043465C681B680C930D9443469968DB68BE
:102540000200984653465D1EF3680A91585D736811
:10255000000202433261BFF35F8F1F6089F310886E
:102560000029B6D0534641460A9C1843A0477268DA
:1025700008900991EFF3108972B61368002BFCD014
:102580000A94BFF35F8F0899099A002A1DDB114353
:1025900002D03369002B35D13368D97B002906D0AE
:1025A0001A684800411852185146033A5170524671
:1025B000DA73F268535D0133535573683761BFF3C3
:1025C0005F8F1F6089F310886AE73369002BE3D0BF
:1025D0000C9B0D9C5B1A94410C980D991A002300DA
:1025E000A1421FD8994221D00021049101310391C9
:1025F00051460291414601910A9930000091FFF73E
:10260000C3FEDAE700F01CFB089A099B0E900F91BD
:102610000E980F9912184B41994203D8E4D10E99A4
:102620009142E1D901225242D317DDE70C99914240
:10263000DAD9F7E74C1B0020FFFFFF0FF8B557462C
:102640004E464546DE46E0B5404D824689466A68BC
:10265000EFF3108872B61368002BFCD0BFF35F8FC6
:102660002E68B47B002C47D0670033683F19033FC6
:10267000DB195A78B273002A00D1F273344AA118D8
:10268000AA68090152185146116049465160314902
:1026900091600021D160997059701970737B9B46CD
:1026A000002B3ED0220073685946B06898475B46BD
:1026B0005B0032685B44033BD719D218002829D04D
:1026C0005B46BB701378002B38D15B461470737374
:1026D0005C4527D00026EB681B19013B19786B6815
:1026E000BFF35F8F00221A6088F310880020002E4D
:1026F0000AD10802204307E06B68BFF35F8F1C60BC
:1027000088F3108801204042F0BCBB46B246A9467F
:10271000A046F8BD94703B78002B00D053705B4608
:102720003B70747352464B46287D00F0E9FA061E52
:10273000D0D02100286800F045FDCCE77B705B46D7
:10274000147073735C45C5D1ECE7C0463C020020B1
:10275000FFFFFF0F8123001010B5104C6368002BA2
:1027600000D010BD23000E4A1021206800F09EFB0F
:10277000032000F059FA032000F030FB0320094940
:1027800000F078FAFFF74AFD074B9C4603236044AC
:102790002375064B80006060DC60E2E73C020020AD
:1027A0004D23001089240010400000344C1B0020F1
:1027B000004870473C020020F0B54E465746DE46C2
:1027C0004546E0B589B0019314AB1B78060005932C
:1027D00000239A46994600927268EFF3108B72B606
:1027E0001368002BFCD0BFF35F8F3568AC7B002CE7
:1027F00000D16CE067002B683F19033FDB195A7862
:10280000AA73002A00D1EA73534AA118B2680901D9
:1028100052180098019910605160129991601399B3
:10282000D1604A469A705A701A706B7B9846002B9A
:102830005DD022006B684146A868984743465B001C
:102840002A684344033BD719D218002848D043468E
:10285000BB701378002B00D07B70434614706B73F1
:10286000444545D0F3681B19013B18787368BFF3E2
:102870005F8F4A461A608BF310885346002B08D1AD
:102880000002204309B0F0BCBB46B246A946A046B0
:10289000F0BD059B002B5CD0129B0020139998473C
:1028A00003000B4355D00290039100292DDA0098C4
:1028B0000199029C039D02000B00121BAB4199423F
:1028C00038D83DD000920193059B9A4684E77368FF
:1028D000BFF35F8F1C608BF3108801204042D1E76B
:1028E00094703B78002B00D0537043463B706C7360
:1028F000307D009A019B00F003FA82460028B1D097
:102900002100306800F05EFCACE700F099F9069019
:102910000791069B079C029803991B184C41069946
:10292000079A00930194A24204D8CDD1069B009A45
:102930009342C9D901235B42DC1700930194C3E79A
:1029400000999142BED901235B42DC1700930194A8
:10295000BAE7002096E7C046FFFFFF0FF8B5040076
:102960000D0000F06DF906000F00A4197D41A94289
:102970001AD817D006267642F71736196F41AF429C
:1029800035D90026002700F05BF932003B00121A0F
:102990008B41002B16DC002B26D02900200000F0F4
:1029A00059F9F8BDA042E5D907267642F71700F09D
:1029B00047F932003B00121A8B4101246442E517AB
:1029C000002BE8DD30003900FFF738FE0130E4D09D
:1029D0003900094A536A994204D8906AB042DCD25D
:1029E0009942DAD120BFF5E7002AD6D0EAE7AF4214
:1029F000C9D1A642C5D8C6E700400540F8B50400D5
:102A000000F01EF9FA2206000F002000002300212A
:102A1000920003F0DFFB8019794104000D008F4222
:102A20001AD817D006267642F71736196F41AF42EB
:102A300035D90026002700F003F932003B00121AB6
:102A40008B41002B16DC002B26D02900200000F043
:102A500001F9F8BD8642E5D907267642F71700F05E
:102A6000EFF832003B00121A8B4101246442E51753
:102A7000002BE8DD30003900FFF7E0FD0130E4D045
:102A80003900094A536A994204D8906AB042DCD2AC
:102A90009942DAD120BFF5E7002AD6D0EAE7AF4263
:102AA000C9D1A642C5D8C6E700400540F8B5CE4614
:102AB000474680B505000C00FFF7C0FD031E0FDC84
:102AC000294A0020536AA34206D3926A1B1B591E4F
:102AD0008B41AA4240411843C0BCB946B046F8BD3C
:102AE00020BF224E7168EFF3108772B60A68002A81
:102AF000FCD0BFF35F8FDAB29446FF2230681A40F1
:102B0000417B61450AD001688946510088464946A3
:102B1000904441440339897800291BD0F1681B0A8D
:102B20008A18013A1278DBB29A4218D07368BFF360
:102B30005F8F00221A6087F310880B4A0020536AC7
:102B4000A342C9D3926A1B1BAA4240415A1E934119
:102B50001843C1E732699342E8D13161E6E7614643
:102B600000F030FBE2E7C046004005403C02002098
:102B7000F0B5D6464F464646C0B5EFF305823F2333
:102B8000134018001038EFF3108C72B620490A6811
:102B9000002AFCD0BFF35F8F0122170087401D4C35
:102BA0001600A24667631C4C2578A0462C00C44042
:102BB0002640224215D05246566A184A8400A2582E
:102BC000964218D34246164BBD43E3581570BFF3E7
:102BD0005F8F00220A608CF31088002B06D0984784
:102BE00004E0BFF35F8F0E608CF31088E0BCBA4640
:102BF000B146A846F0BD0B4A9B00904643441A6874
:102C00001A60BFF35F8F00230B608CF31088EDE731
:102C1000280100D0004005405E1E0020381E002024
:102C200010140020D03F054010B5034B01001800E0
:102C3000024AFFF775FA10BD561E0020E8990010F1
:102C4000034B596A0A00986A596A8A42FAD1704756
:102C500000400540064A536A9942FCD807D1044B0C
:102C600002E05A6A914202D19A6A8242F9D37047CD
:102C70000040054070B504000D00EFF3108672B6F9
:102C80001A4A1368002BFCD0BFF35F8F002D1BD0B6
:102C9000200000F0EFFD164981420AD0200000F02C
:102CA000F1FD0121200000F0CBFD0123A340114ADA
:102CB0001360114BA400E550BFF35F8F00220B4B54
:102CC0001A6086F3108870BD0121A1400A4BA20052
:102CD000D5500A4B20001A788A4305491A7000F033
:102CE000FBFD0021200000F0ABFDE5E7280100D04E
:102CF000712B001038600540101400205E1E00206B
:102D0000F0B54F46D6464646C0B507002E4C616A20
:102D10000D00A66A616AA942FAD18B4208D805D093
:102D20000120E0BCBA46B146A846F0BDB242F7D990
:102D3000EFF3108A72B6254801680029FCD0BFF372
:102D40005F8F0125BD4022491F4C8846097889467E
:102D50002943C9B28C46414660460870391D890036
:102D600065630A511B49B8004350216A002029427B
:102D700019D0616A0800A66A616A8142FAD18B4261
:102D800019D801D1B24216D8CC450BD00E4B1F2218
:102D90001D625D6301233A4093400F4A136043462E
:102DA0004A461A700120BFF35F8F0022074B1A605A
:102DB0008AF31088B5E70020BFF35F8F0022034B32
:102DC0001A608AF31088ACE700400540280100D063
:102DD0005E1E0020381E002080E200E0EFF3108C21
:102DE00072B60A490B68002BFCD0BFF35F8F01233A
:102DF0008340074A0748136202789A430270BFF380
:102E00005F8F00230B608CF310887047280100D07F
:102E1000004005405E1E0020024B9C466144890034
:102E2000016070474000003410B50400FFF7F6F968
:102E300001002000FFF7F0FFFF232371BFF35F8F36
:102E400010BDC04610B504000120FFF7F3F90100E2
:102E50002000FFF7E1FFBFF35F8F10BD70B50600E4
:102E60000D00140000291CD0002A12D0736880685D
:102E7000984763006A0031681B195219033B033AF3
:102E8000CB188918002806D09D700A78002A0AD12C
:102E90000C70280070BD8C701A78002A00D04A701F
:102EA0001D702000F6E75A700C70F2E710B58360D1
:102EB0000023CCB243730133426004738373C47341
:102EC0000068421C012C05D90133DBB213700332B8
:102ED0009C42F9D1FF230B405A00D318C01800239D
:102EE0000338437010BDC046F8B5CE4647460500CE
:102EF0000C0080B5002907D04E0003687618033E09
:102F00009A195778002F04D12000C0BCB946B046AA
:102F1000F8BD7900C9190339884643445978894670
:102F20000021597051706B683A0021008068984701
:102F300043462A68D3189219002811D09C70117842
:102F4000002900D059701770270049462800FFF764
:102F5000CBFF390002002800FFF780FF0400D3E711
:102F600097701978002900D051701C70EDE7C046A9
:102F7000F8B557464E464546DE464C00E0B5641867
:102F800017000268033C0500105D13190E009C46F3
:102F9000002856D0430098461B18033BD318597895
:102FA0008A46002919D1002F0CD0EC7B002C54D07C
:102FB00063001B19D318033B5E70EE734346191868
:102FC0000339531800229A70002362465370F0BCF4
:102FD000BB46B246A946A046F8BD49005144033954
:102FE00052185178884600215170894659705246CE
:102FF00001002800FFF732FF43468246002B07D02E
:103000005B0029684344033BCB185A78002A2AD135
:10301000424651462800FFF721FFA4462A680100D6
:103020009444002F08D0EC7B002C04D063001B19C3
:10303000D318033B5E70EE730029C5D04B00984651
:10304000BCE7002FC0D0E97B00290AD04B005B18F9
:10305000D318033B5E70EE73B6E70022EE739A70EE
:10306000B2E7EE73B0E750008018033809184878CB
:10307000834648464870587041462800FFF7EEFEE8
:10308000594680462800FFF72FFF414602002800DE
:10309000FFF7E4FE8046BBE7F8B557464E46454687
:1030A000DE46E0B5467B02687500AD19033D0F00B2
:1030B000515D531904009C46002957D04B00984697
:1030C0005B18033BD3185878824600281BD1002F89
:1030D0000CD0E57B002D55D06B005B19D318033B5A
:1030E0005E70E673434658180338131800229A702E
:1030F00000236246300053706173F0BCBB46B24699
:10310000A946A046F8BD4000504403381218507834
:103110008046002050708146587052462000FFF7CC
:103120009DFE43468246002B07D05B002168434446
:10313000033BCB185A78002A2AD142465146200038
:10314000FFF78CFEAC46226801009444002F08D0A3
:10315000E57B002D04D06B005B19D318033B5E7038
:10316000E6730028C4D043009846BBE7002FBFD0C9
:10317000C07B00280AD043001B18D318033B5E70A5
:10318000E673B5E70022E6739A70B1E7E673AFE73E
:10319000500080180338091848788346484648701C
:1031A000587041462000FFF759FE594680462000DE
:1031B000FFF79AFE414602002000FFF74FFE8046CF
:1031C000BBE7C04670B5040000292CD0437B8B427E
:1031D0002ED0056848004018033828188278002A45
:1031E00021D053009B18033BEA5CEE188A4202D1BF
:1031F0001BE0002A08D053009B18033BEB185A78B9
:103200008A42F6D142785A700023012283704370BB
:103210002000FFF7ADFE617B02002000FFF71EFEDD
:103220006073012000E0002070BD43783370EBE74D
:1032300001221900FFF79CFEF2E7C046F8B52B4AC1
:103240002B4B2C491A602C4A2C4B1A6014008B68AB
:103250009C43FBD12A4D2B4EB54208D2013E761B32
:10326000B60808CD984723000134B342F9D100F0E5
:1032700095F8254A214B1A601E4A9368DB43DB010F
:10328000DC09002BF9D14022204B214D214F9A67B8
:103290005A671A67DA66BD420BD20026013F7F1BD0
:1032A000FF082800FFF7C0FD083533000136BB4298
:1032B000F7D1194D194EC022B168280003F08AF8E1
:1032C000B560FEF79DFF00F041FCFFF745FA144D95
:1032D000144EB54208D2013E761BB60808CD984779
:1032E000230001349E42F9D1F8BDC046BFCDFFFF97
:1032F00000E0004000C00040FE7F3C0000F00040C5
:103300006C0800207C080020FFFFFF0100F0014056
:103310005C0800206C0800200000002000ED00E0A8
:103320007C08002084080020094A03001068002857
:1033300005D00849C3188B4207D813607047064868
:103340000449C31810608B42F7D901204042F5E7C9
:10335000A014002000000420601E002000BEFDE735
:103360000FB400B5084883B003F016F9049B002B96
:1033700007D005A91800019102F066F8034803F090
:103380000BF900BEFDE7C0460C9A00101C9A001015
:1033900010B50148FFF7E4FF209A001010B50C208B
:1033A00082B000F06DF9FEF757FF002810D08C4B6B
:1033B0008C488C498C4A186059609860D9601861B3
:1033C00059619861D961186259625A6202B010BDA0
:1033D000864CA06700F0F6F90122854B1A60636CF9
:1033E000012BFCD10322834B1A60804A936B012B83
:1033F000FCD1C022804B92011A60804B80491A6038
:1034000010008B689843031EFAD1022401217D4AE3
:103410007D480633009400F0E9F905237B4A012139
:103420007B48009400F0E2F97A4B5A68FF2A02D8F0
:10343000802252005A6080226E4B694C12011A6041
:103440002169002905D0606902F07CF8013001385B
:10345000FDD1E0236F4A704811680B4003600223DE
:103460001168594001330B400421036093681942ED
:10347000FCD08021694B090119608021684B49000B
:1034800051602361674B5A68FF2A00D859600322B4
:103490000121574B1A60634A93681942FCD0E0231C
:1034A0001068034060480360126803234A40022109
:1034B00013405C4A036093681942FCD080215B4B47
:1034C0000901196080215A4B490051606361594BD1
:1034D0005A68FF2A00D859608022574B12011A609F
:1034E000E169002905D0606902F02CF8013001384B
:1034F000FDD1E0234F4A11680B4050490B608021F9
:103500004F4B090119608021364B49005160E3613E
:103510004C4B5A68FF2A00D8596080224A4B12014E
:103520001A60216A002905D0606902F00BF80130A9
:103530000138FDD1E023434A11680B4043490B6039
:103540008021434B0901196080235B005360802276
:10355000244BD20223623F4B5968914200D25A60F9
:1035600080223D4B12011A60616A002905D0606912
:1035700001F0E8FF01300138FDD1E023354A116840
:103580000B4036490B608021354B090119608023BF
:10359000DB025360144B6362324B5A68FF2A02D835
:1035A000802252005A6080222F4B12011A60A169BA
:1035B000002905D0606901F0C5FF01300138FDD157
:1035C000E023284A11680B4028490B608021284BD2
:1035D0000901196080235B005360154BA361F5E678
:1035E00088090020006CDC021BB70000008000404E
:1035F0003CB0004030B0004000E0004000F000402F
:1036000000C00040002F68590080024000389C1C18
:1036100000C00240308000403090004030A00040A8
:10362000001BB7003C8000403C9000403CA00040A4
:10363000405973075480004054B0004054900040FB
:1036400054A000406080004060B0004060900040A6
:1036500060A000406C8000406CB000406C90004066
:103660006CA000404880004048B0004048900040B6
:1036700048A00040014B8000C058704788090020D6
:103680008023024A9B000343D362704700800540B9
:10369000024B1A68024B5A607047C046281B002034
:1036A000008005400022184B10B5DA618022174BCC
:1036B000D2051A60164C174A1460002919D0E0226E
:1036C000154BD2041A60002818D043011B1A9B0026
:1036D0001818802300015B04984212D30F4B180086
:1036E0000F4A13608022084BD20558600A4B1A60BB
:1036F00010BDE022D2041A600028E6D1094B180060
:10370000EEE70300ECE7C0460080054000B005404E
:10371000FCFF01000820014000A00540FFFFFF0062
:10372000281B0020A086010010B580241B4BE40557
:103730001C60002829D00123194C1843194BDC6167
:10374000194C44401C62596298628021134BC90590
:103750001960164816490860E021C9041960002A5A
:1037600016D053019B1A9B009A18802312015B0408
:103770009A4210D30F4B1A000F490B60094B5A6045
:1037800080220E4BD2051A6010BD064BD861DCE7D3
:103790000B4B1A00F0E71300EEE7C04600B00540FF
:1037A000D3C007B0008005402D3FF84FFCFF01005B
:1037B00008200140FFFFFF00281B002000A005405B
:1037C000A0860100AA23064A1B0113602F23054986
:1037D000D360054B19605368002BFCDA7047C04674
:1037E0000040024000B0FA000060024070B51D00C9
:1037F00001235B42436000230400836001600C20CE
:10380000160001F09FFE43011B1A9901C91AC90055
:1038100009188901300001F095FEC023221D9B018B
:1038200013432122A0601A602268002AFCDA049A5D
:103830002D04120315430822E5601A6070BDC046CE
:1038400001238340002904D0034A1360034A136014
:103850007047034A1360FBE780E200E000E100E00C
:1038600080E100E001238340014A13607047C046B5
:1038700000E200E0024B10309B688000C0587047A7
:1038800000ED00E070B50D00EFF3108672B60F4A40
:103890001368002BFCD0BFF35F8F0D4B10309B687B
:1038A00084001B590B4A934203D09D4201D0FFF77D
:1038B0006FFD074B9B681D51BFF35F8FBFF35F8F99
:1038C0000022024B1A6086F3108870BD240100D0DC
:1038D00000ED00E0CD010010F0B5DE4657464E4643
:1038E0004546E0B50C0083B0EFF3108A72B65D4A2E
:1038F0001368002BFCD0BFF35F8F102291468144E8
:103900004A46594B96009B689D59584B98469D4294
:1039100005D0A54216D0564FEB1B2F2B14D9524B76
:103920009B689D51BFF35F8FBFF35F8F00224D4BAC
:103930001A608AF3108803B0F0BCBB46B246A946B1
:10394000A046F0BD1D00EAE7012383409B465A468E
:10395000484B1B681A4000925A46474B1A60BFF307
:103960005F8FFCF780FC0190002801D0814528D1B1
:1039700001232A009A431300DB1B5B41454959434D
:10398000090D8C4691688C4208D161E043001B18F8
:103990009B00FB189968A14216D01A000620105609
:1039A0000028F3DAA14235D0009B002B05D05A46FF
:1039B000324B1A602F4B1A60B1E75A462E4B1A60F1
:1039C000ADE7FFF7E5FCD3E706201856002822DB19
:1039D0004200111889007C188846A1689960E17935
:1039E000D971062161569971002921DBA488F91A41
:1039F0006405241544440919E0240905490D2402ED
:103A00002143998013181E4A9B001178FB18997165
:103A10001070C9E71300019900290CD1FF209071A3
:103A200018489080164A1078987163461370BBE767
:103A3000BD210902E5E7144A1449D21A083A500296
:103A4000400D01439980124952080A43DA80ABE7DE
:103A50000620105613000028BADA019A002AEAD18B
:103A60004546DFE7240100D000ED00E0CD01001065
:103A70006402002000E100E080E100E080E200E07C
:103A8000591E002000BDFFFF9E02002000F0FFFF36
:103A900000F8FFFFAAAA0000F8B5012504000543BD
:103AA000FCF7E1FBEFF3108C72B6214A1368002B90
:103AB000FCD0BFF35F8F1F4E2200B7681E49521A19
:103AC0005241214B53431B0D8200B8585BB2A842B0
:103AD0001CD006228A569A421CD012228A569A423A
:103AE00022D01E228A569A4220D02A228A560320A9
:103AF0009A4210D0114A11781370A171BFF35F8FF1
:103B000000220B4B1A608CF31088F8BDB1680C488A
:103B10008850EFE700204200121892008918FF2217
:103B20008A71084A8A80E5E70120F4E70220F2E77B
:103B3000240100D000ED00E064020020591E0020A6
:103B4000CD01001000BDFFFFAAAA0000F0B50022C1
:103B50000324FF27802620003D00094B11009C46CE
:103B60001040C0008540A14361440B680132AB4363
:103B7000350085402B430B60202AECD1F0BDC046B8
:103B800000E400E07047C046F8B55746DE464E46B2
:103B90004546E0B599460A9B07009A460D9B884624
:103BA00093460B9C9B073BD10C9B9C423DD21E1B1A
:103BB0000B9415000C005E442A004B460135210091
:103BC0002020B847B542F7D1A0460B9C002C20D04E
:103BD000454636195346321B013C185D29004B46B9
:103BE000B847002CF6D12B00350098460D9B9B075B
:103BF0000FD55B46EC1A0C9BA3420AD94646984661
:103C00002A004B46310020200134B8470135444595
:103C1000F6D32800F0BCBB46B246A946A046F8BD84
:103C200016001500002CD3D1E0E716001500002C7B
:103C3000CED1EEE7F0B54546DE4657464E46E0B5F6
:103C400085B09C4610AB1B78149F934698460F9CFA
:103C5000129E139DBB074CD4002D42D1B44248D2D2
:103C600001233B4099460E9B013B9A46302304E0DA
:103C7000524601341355A64201D9202CF8D14B46A7
:103C8000002B00D183E00E9B013B99463023A542D7
:103C900005D82EE04A4601341355AC4229D0202CD9
:103CA000F8D1FB060CD57B0554D4A64263D0A542BF
:103CB00061D0119B102B50D0022B57D0202C32D129
:103CC000202301930E9B5A46009303976346029567
:103CD000FFF75AFF05B0F0BCBB46B246A946A04666
:103CE000F0BD01233B40994601233B422AD1B44217
:103CF000B9D3FB061CD57B05DBD4002CD5D1119B99
:103D0000102B5BD0119B022B6BD0302301240E9A19
:103D100013704346002B10D17B073ED52B260E9AFD
:103D2000631C1655CDE72300013430260E9AD65475
:103D3000202CC5D04346002BEED02D260E9A631CB6
:103D40001655BEE74346002B2FD0013DB44200D2AA
:103D500089E798E7119B102BB2D1BB0637D5202CF1
:103D6000AED058230E9A13550134A7E7202CA7D0C4
:103D70002300013407E0631E012CC0D0119A102AE1
:103D800031D0022AD1D162260E9AD65496E7FB068C
:103D9000CED57B0500D488E78BE723003E0790D57E
:103DA00020260E9A013316558BE70C233B405A1EF2
:103DB0009341ED1AB44200D255E764E7BB060ED436
:103DC00078230E9A0224137030235370A1E7202C1D
:103DD00000D175E778230E9A135501346EE7582306
:103DE000EFE76033EDE70E9AA61E91464E44BA0601
:103DF00002D55822327098E77822327095E7C04693
:103E000010B5002800D110BD02F06EFBFBE7C046E4
:103E10000B0010B5002802D049681B68984710BDF8
:103E2000F0B55746DE464E464546E0B595B083466A
:103E30000F00924698461E9A1F9B10001900209E64
:103E400001F03DFE002800D0EAE11E981F990122F2
:103E5000C54B524201F018FE002800D014E11E9814
:103E60001F990122C14B524201F024FE002800D0CC
:103E7000E9E01E981F990022BD4B01F01BFE0028AF
:103E800000D0C8E01E981F990022BA4B01F0FCFD3B
:103E9000002800D0BFE01E981F990022002301F0E7
:103EA000F3FD002800D0E4E000230B93229B5B0588
:103EB00000D406260024302307E0172106AA013487
:103EC00052181355013E202C01D0092EF5D81E980A
:103ED0001F9901F01FFEA84BF2009B181A685B683F
:103EE00005000892099301F0FDFD02000B001E98E9
:103EF0001F9901F06CFD089A099B01F083FD069063
:103F0000079101F02BFE814601F0E8FD02000B0055
:103F10000698079901F05BFD0022984B06900791E7
:103F200001F0C8FD002800D10DE101239C46E144C9
:103F3000484601F0D3FD02000B000898099901F0F2
:103F4000A9FD002802D0002399460135002E00D19A
:103F5000D9E006954D46B94614E006AA94461723C3
:103F60000A216344280001341F1901F0EBFA3031B3
:103F7000397028000A21013E01F0E4FA092D00D829
:103F800017E10500202CE8D14F46069D20240CAEF9
:103F900006AA17239446634499465B46B3460693A4
:103FA0000FE04B4628000A210134E61801F09EFA82
:103FB0003031280031700A2101F098FA051E00D135
:103FC000E4E0202CEDD1069B5E469B460323229A1B
:103FD0001340012B18D1219B002B15D00B9B002BDC
:103FE00000D1FDE0219B013B2193202B0CD93023F4
:103FF000219A07E0172006A9013409180B559442AD
:1040000000D3CCE0202CF5D1229B01940393219B7B
:104010000096029322E0229B52460493219B390092
:10402000039358461E9B1F9C02960093019443469F
:1040300000F04AF90400200015B0F0BCBB46B246BF
:10404000A946A046F0BD229B5B070FD403224C4B30
:10405000229901920391219900930291434652467D
:1040600039005846FFF790FD0400E4E70422454B71
:10407000EEE71E9A1F9B0020002101F0A8FC0123FF
:104080001E901F910B9311E7229B54469B0711D161
:10409000219B042B0ED9219B55469C465E46043C31
:1040A00064442A004346013539002020B047A54228
:1040B000F7D1B346344D26002B1F99465B46A346E5
:1040C0001C003200E87843463900013DA047013624
:1040D0004D45F6D123005C469B46229B04349B074A
:1040E000A9D55346219AE31A9A42A4D95E461500EF
:1040F0002200434639002020B04753460134E31ADA
:104100009D42F5D897E7280001F0ECFC02000B0077
:104110001E981F9901F05BFC0022184B0690079136
:1041200001F0B2FC0CAE002800D031E706980799E8
:104130000022124B01F0BEFC002800D028E701232A
:1041400001359D4324E70022069807990B4B01F0A7
:104150009BFC002800D0F9E64B46002B5CD10123E4
:104160009C46E144F2E6C046FFFFEFFFFFFFEF7F12
:1041700065CDCD4165CDCDC1209E00100000E03F52
:10418000349A00102C9A00103C9A0010069B5E4650
:104190009B460323229A1340012B00D181E0202C5F
:1041A00000D131E70B9B002B27D02D233355013451
:1041B0002AE74F46069D202C00D1E7E6302233192E
:1041C00007E0172006A9013409180A55202C00D150
:1041D000DCE6A342F5D12E220CAE0134F254D7E630
:1041E0000C23229A134257D0219B013B2193A342D7
:1041F00000D9FCE6202C00D106E7229B5B0703D503
:104200002B2333550134FFE6229B1B0700D4FBE62A
:10421000202333550134F7E6DB0700D496E69EE70A
:10422000229B55469B0711D1219B032B0ED9219B25
:1042300054469C465E46033D654422004346013495
:1042400039002020B047AC42F7D1B346B9465F46AB
:104250001C4EEC1C2A00B078434649460135B8474D
:10426000013EAC42F6D1229BBB464F469B0700D491
:10427000E1E65346219AE31A9A4200D8DBE65E460D
:1042800015002200434639002020B0475346013430
:10429000E31AAB42F5D3CEE6219BA34200D9A6E6B2
:1042A000B2E6219B002B00D179E70B9B002B97D026
:1042B000219B013B21939C4200D298E6202C00D008
:1042C00073E7A1E6389A0010F0B5DE4657464E4631
:1042D0004546E0B599B081468B4692469846229A6B
:1042E000239B1000190001F0EAFB002800D0CAE06F
:1042F000229823990122824B524201F0DBFB0028D5
:1043000000D0C0E02298239901227E4B524201F056
:10431000BBFB002800D0B6E022982399002200239E
:1043200001F0B2FB002800D0C9E1229B239C089336
:104330000994089809998023269ADB001A400D9267
:104340008022269C1201144022000B94269C070018
:104350000E001C4200D0ADE00B00034300D0D5E0BE
:10436000002A00D00AE222000633249302231340DD
:104370000C930223134200D002E2259B042B00D2AF
:104380000FE2043B0B93002304250A93002222989A
:104390002399002301F078FB002800D003E25A4B58
:1043A000269A134004930B9B0393249B0293089B30
:1043B000099C009301945946434652464846FFF7EC
:1043C0002FFD02002020269B1F27034059424B410E
:1043D0005B421840531C0893594643464530C84732
:1043E0000A9AD317D4185C40D30F0A936B1E0B9311
:1043F00008AB9C460025674401E0202D0FD020002B
:104400000A2101F09FF801357E193031317020000A
:104410000A2101F097F826000400092EEDD80523A3
:1044200006930B9B59460593002304930A33039389
:104430000A9B4846029310AB0093089A43460195A5
:10444000FFF7F8FB0C9B002B2DD05346C41A259B7D
:10445000A34228D94D465F4681461E005346390087
:104460001A19202043460134A847A642F6D85346DD
:1044700048462599C21A01320023914200D386E1B1
:10448000013018180FE0269B0493259B0393249B6F
:104490000293229B239C0093019443465246594623
:1044A0004846FFF7BDFC19B0F0BCBB46B246A94672
:1044B000A046F0BD01432BD10B9B2200002B00D165
:1044C00054E700230A93249B0A9A0024934200DDB8
:1044D00085E1229823990022002301F0D5FA0028D3
:1044E00000D035E1269B084A02941A408023DB0065
:1044F00013430493259B0393089B099CCBE7C04679
:10450000FFFFEF7FFFFFEFFFFFF7FFFF062324937F
:10451000B44B70009C46400D604401F0E3FAB24A8F
:10452000B24B01F06FFAB24AB24B01F059FA3603BE
:10453000B14B360B334304000D0038001900002244
:10454000AE4B01F044FAAE4AAE4B01F05BFA02000A
:104550000B002000290001F043FA01F0DBFA0A9079
:1045600001F0C0FAA84AA94B04000D0001F04AFA74
:104570000022A74B01F034FA01F0CCFAA54A06005C
:10458000A54B2000290001F03DFA040030000D0089
:104590000C9601F0A7FAA14AA14B01F033FA0200F0
:1045A0000B002000290001F012FA02000B000600A7
:1045B0000F0001F027FA320004000D003B0030002C
:1045C000390001F00DFA00220E900F91954B20005A
:1045D000290001F00EFA0022934B01F001FA0200CB
:1045E0000B002000290001F004FA00228F4B01F09B
:1045F000F7F902000B002000290001F0FAF90D0084
:104600008021040032003B000020C90501F0DFF9E1
:1046100002000B002000290001F0E2F902000B006B
:104620000E980F9901F0E5F90022734B01F0D8F9CB
:104630007F4B0C9C9C4664440022230501F0E2F968
:1046400006000F0002000B000898099901F01CFAFF
:1046500000280AD00A9B3000013B39000A9300224F
:10466000714B01F0C6F906000F000A9A330063325D
:104670003900C62A12D802222698042510400B9A27
:104680000C90002A25D1259B042B05D9002800D0A9
:10469000A1E0259B043B0B93042541E002222698D0
:1046A00010400B9A0C90002A12D1259B052B76D92D
:1046B000002872D1259B0525053B0B9334E0802211
:1046C00012069446229B0893239B6344099330E689
:1046D00005250B4300D1F6E608980999554A564B33
:1046E00001F0E0F9002808D0089809990022534BFE
:1046F00001F0CAF9002800D0E5E6249B002B1CD06D
:104700000D9B002B19D0249B013B2493259BAB428E
:1047100004D90C9B002B5AD002230C9300230B933B
:104720000A9B002B00D131E60898099932003B0022
:1047300001F05FF90890099128E6259BAB42EDD97D
:104740000C9B002B43D000230B9302330C93E7E721
:104750008020269B3A4A00061A4080238446029411
:10476000089C099D2900DB0013430493259B6144A9
:10477000220003930B00009201938EE60524A8E625
:1047800000230B930A93023304250C93FEE5534652
:104790008C46013B63441B1A72E602230C930525E9
:1047A000C2E70423EDE58020089E099F000639003A
:1047B0008446269A224B6144134004930B9B32009B
:1047C0000393249B02930B0000920193F3E5259B36
:1047D0005B1B0B93A4E7022304250C93A0E79C1A10
:1047E000013C76E601FCFFFFFB799F501344D33F69
:1047F000B3C8608B288AC63F0000F03F0000F83F36
:1048000061436F63A787D23F71A379094F930A4031
:104810000000E03F1655B5BBB16B0240EF39FAFE20
:10482000422EE63F00002C400000244000001840CB
:10483000FF0300002D431CEBE2361A3F80842E411B
:10484000FFF7FFFFF0B5DE4657464E464546E0B55A
:10485000A5B01E002E9B92460C93CD4ACD4B8046B0
:104860008B461A60002900D1EAE10023307899468E
:10487000002800D1ECE1C84B4C460B93C74B454692
:1048800057460E930AE0631C984622003B005946A7
:10489000A84744463078002800D187E00136252813
:1048A000F1D108239A46043B9946023B9846013BC6
:1048B00000229C460D943078711C0300203BDBB233
:1048C000102B03D80B9C9B00E3589F460300303B02
:1048D00089460D9C092B3AD9002398462A2800D1F5
:1048E000C1E000239A462E284BD00300683BDBB280
:1048F000122B1ED80E999B00CB589F4663460E0084
:104900001A43D8E743460E001A43D4E74B460E003D
:104910001A43D0E710230E001A43CCE753460E008B
:104920001A43C8E780235B001A43FF3B9C4670781C
:10493000E1444E4667284FD82428A4D90300253BDC
:10494000DBB2422B9FD896499B00CB589F46002351
:1049500094461E0000E00131B3009B195B001E1855
:104960000878303E0300303B092BF4D9012362461E
:1049700089469C460023B0469A460E00E1442E2804
:10498000B3D13021802049428C46C0000243707868
:104990004B4684446146092900D86CE12A2800D19D
:1049A0007AE101239C464E46E1449EE7A146A84693
:1049B000BA46CA4503D801235B425344994653463D
:1049C0004A4659460020C047200025B0F0BCBB46EF
:1049D000B246A946A046F0BD0300693BDBB20D9389
:1049E0000F2B00D94FE7012199408C466D4989462C
:1049F00061464B4619400F91634649460B4200D031
:104A000028E10D9B0A2B3AD0072B00D03BE70C9BEB
:104A1000190008C98846002B00D14BE12120024330
:104A2000914614A98C461F220F2162448C465146A0
:104A30000D950C91A24615000F9902E020290CD08B
:104A4000130064461C4020003730092C00D807387A
:104A5000013168541A090F2BF0D80C9B54460D9D58
:104A60009A460F9133E10C9B02CB8846002947DB25
:104A70000C9301239C4670784E46E14431E70C9B31
:104A800002CB14935346002B00D138E19C460878A2
:104A90000B000C908C44002801D100F098FC894652
:104AA0006146944603E05A780133002A01D08B42D4
:104AB000F9D1494662465B1A0C900F93530500D515
:104AC00020E10223180010400D90134200D1CBE3E7
:104AD0000D930B1BB1469A465E460C9822003B0094
:104AE0003100A84753460134185D0028F6D1B3467B
:104AF0004E460D9B002B00D0C7E1149B0C93C9E6DA
:104B00000C9301239C46283849420243884670781A
:104B10004E46E144E5E670786C2800D17FE18023C1
:104B20005B001A43FF3B9C46E14402E780239B0065
:104B30001A4301239C467078E144FAE670786828AD
:104B400000D173E180231A437F3B9C46E144F0E6A9
:104B5000672800D103E1472800D15AE1452800D158
:104B60005AE10492072142460C9B039207335246B6
:104B70008B43190002920CC92800009201930C91FA
:104B800022003B005946FFF79FFB040082E6C04627
:104B900045480010241B0020849C0010C89C001075
:104BA000149D001041900000462800D1DBE00492E3
:104BB000072142460C9B0392073352468B43190050
:104BC00002920CC92800009201930C9122003B0034
:104BD0005946FFF725F904005CE6631C984622005D
:104BE0003B0059462520A847444653E60C9B043316
:104BF0000D93631C9946920700D422E10C9B22007E
:104C0000187859463B00A84743464444012B00D836
:104C100085E23300B8462E005F4625004C46994693
:104C200022004346013439002020B047AC42F7D17E
:104C30002C00BB46350047464E460D9B0C9329E69B
:104C4000DB4B3078984600239946002800D012E6C6
:104C50000024AEE66F2800D188E000D80BE31023D3
:104C6000782800D1CFE09A430A239C4600230F9373
:104C70000A330D9380E05646B1008919490001338B
:104C80000E181878303E010030390929F4D9B2469F
:104C90001E000133994628E60C9B023602CB8A4659
:104CA000C9435046C917084082460C933078731C9C
:104CB00099461AE610231000984311331843814691
:104CC00080201300C0000340024200D1A9E64B46F9
:104CD000069308230593534604931023039300235C
:104CE00002930F9B220001931CAB009359463B009B
:104CF0002800FEF79FFF434604000C93CAE50123FA
:104D00005B42C3E60F9B534501D953460F930223E1
:104D1000180010400D90134200D1B7E10D93D14619
:104D20000B1B9A463300A1442E0022004D460C98DE
:104D3000B9465F469B4608E04B463900541CB047D5
:104D40005346185D002877D022009542F4D15B4687
:104D5000BB464F46A94635004C461E00C9E6802397
:104D60001B011A43FDE620231A4320E708239C4633
:104D700000230F9308330D9380231100DB001940AB
:104D80001A4200D116E10D239A431000802302003D
:104D90009B001A401492184200D0C2E18023020006
:104DA0005B001A4091460C9A04320F92184200D0D0
:104DB000B7E2430600D59FE1030600D419E30C9B3C
:104DC0001B880993002B00D0FCE110339843002985
:104DD00000D1F7E1002399464346059353460493D7
:104DE0000D9B069003930023D2E0582808D0622838
:104DF00067D102239C4600230F9302330D93BBE738
:104E000020231A43103B9C4600230F9310330D932D
:104E1000B2E780231B011A4320231A43A1E6C023D3
:104E20009B001A43F31C9946B07882E5C0231A43CD
:104E3000F31C9946B0787CE535005E46BB464F468C
:104E400057E64346012B00D863E1631E43449A466C
:104E50003300B9462E005F4655469B46A2462200C7
:104E60004B46013439002020B047AC42F7D1350021
:104E70005E46BB464F46A14654460C9B4A461878B0
:104E800059463B004444A847D7E6A1460F9B9845A6
:104E900000D832E64444E41A3300B8462E005F4698
:104EA00025004C4699462200434601343900202013
:104EB000B047AC42F7D12C00BB46350047464E46C2
:104EC0001BE680231000DB0018401A4200D10FE1DE
:104ED000112118008A430D920D9A802311009B0026
:104EE00019408C461A4269D1802311005B00194099
:104EF00089460C9904310F911A4200D0CAE113007F
:104F00005B0600D5F0E013001B0600D459E20C9BB1
:104F100000229B5ED9175A184A4092B2D90F0C91C1
:104F2000002B00D1F9E1100014AA944642461F2339
:104F3000149252466344A84616944D460400B9465E
:104F4000B2461F00159201E0202D0FD020000A214B
:104F500000F0F8FA01357E193031317020000A2155
:104F600000F0F0FA26000400092EEDD8149B4F46FD
:104F7000A94645469846159B56469A46169C0D9B53
:104F8000069343460593534604930A2303930C9BCD
:104F900002934B4601931CAB2200009359463B0001
:104FA0002800FEF747FE0F9B04000C9372E4C046F6
:104FB000853B00100C239A431000E7E607220C9B68
:104FC00007339343013294469C4462460C920CCBC7
:104FD000D90F0F911100194300D191E0D917139106
:104FE00012915140109113995940119110981199B3
:104FF000129A139B801A99411090119114AA0023C0
:10500000944642469946149252461F336344A8463A
:10501000B24616944E46109C119DB94615921F003B
:1050200001E0202E10D0200029000A22002300F0E9
:10503000CFFA013630322B00BA550D0022000400A1
:10504000002BEED1092AECD8149B109411954546FB
:105050009846159B4F46B14656469A46169C0D9B60
:10506000069343460593534604930A2303930F9BE9
:1050700002934B4601931CAB2200009359463B0020
:105080002800FEF7D7FD0400FFF704FC0F9B9845AE
:1050900000D8C1E18023DB000D9343460F9A1B1912
:1050A0009B1A994633002E004D46B9465F469B46F3
:1050B0000C9122004B46013439002020B047AC420D
:1050C000F7D143460C9901330F930B7835000C93BD
:1050D0005E46BB464F46002B00D10EE50D9B002BD4
:1050E00000D1F6E4002319E60C9B1B781A0015E7A3
:1050F00010239A430D92EFE60C9B1B78099361E60F
:10510000002399460028AAD100220023109211936F
:1051100074E70C9B2200187859463B00A8474C4680
:105120008BE50C9AFA3BFF3B07329A4301339946D1
:1051300091444B460C931368526815921A4306D15A
:105140001032904300220992002900D081E06122B0
:10515000810600D54122D2B20A9214AA91460A9A37
:1051600000210A3A149242461792524618925A4621
:105170000991B3461F311E000F9B4944BA4619944A
:105180001A950024674698468946159D16901B92ED
:105190000AE03032D2B24B4601341A55A8454AD003
:1051A000202C4AD006000D003A00002330002900D0
:1051B00000F00EFAD2B2092AEBD9149B9C46624445
:1051C000D2B2E8E76123820600D54123DBB20A3B75
:1051D0000C93434614A91F228C46159353466244F0
:1051E000A046B2464C461797A9461700099D0D9E4A
:1051F0001490169308E03033DBB201343B55B542CE
:105200000ED3202C0CD005003100280000F09AF9B4
:10521000CBB20929EFD90C9A94466344DBB2ECE790
:10522000159B4D46A14644469846169B56461498F3
:105230009A46179FD0E5B742B2D9179B5746984672
:10524000189B5E469A461B9B09949B461698199C90
:105250001A9D43460593534604930D9B0690039372
:1052600000230293099B05E70F9B984500D914E79B
:1052700001330F932DE41023110099430D916928F8
:1052800000D0BAE080231000DB0018401A4200D1A1
:1052900022E61DE60C9B1B68DA0F1100002B00D1E3
:1052A0008CE0DA179818504014AA914642461F2302
:1052B000149252464B44A046A946169704006546F0
:1052C000B2461F000C91159201E0202D0FD0200056
:1052D0000A2100F037F901357E1930313170200094
:1052E0000A2100F02FF926000400092EEDD8149BA6
:1052F000444698460C9BAC461900159B56464D46B5
:105300009A46169F0D9B029106934346059353467A
:1053100004930A23039363463CE6002800D02EE65C
:1053200002E60C9B1B689946002B03D1103398436F
:10533000002938D16123820600D54123DBB20A3B24
:105340000C9343461693534614A91F228C46179379
:105350002B006244A0464D46B24618979946170066
:10536000149C0D9E159008E03033DBB201343B55A0
:10537000B5420ED3202C0CD005003100280000F0DF
:10538000E1F8CBB20929EFD90C9A94466344DBB219
:10539000ECE7169B149444469846179B56464D4698
:1053A0009A461598189F43460593534604930D9BC0
:1053B0000690039300230293149BEBE50028A1D1F0
:1053C00072E70C9B1B68D9175A184A40A6E5802340
:1053D0001000DB0018409C460F901A420FD00220AC
:1053E000030013400F93104219D00023A1460F93DE
:1053F0004CE50C9B1B680993E4E40A0034E40223A7
:10540000180010400D90134200D03EE54346002B9B
:1054100000D042E6FFF771FB01330F937FE4634650
:105420000D93F3E710B50C0084B00394012402A996
:1054300002900093034813006242FFF703FA04B09E
:1054400010BDC046113E001010B5094A0300146893
:1054500084B0002C08D0012200910648524203A9D2
:10546000A047012004B010BD01F096F80020F9E734
:10547000241B0020013E001001480421014B184765
:10548000B0020020A9540010002310B50100988A32
:105490001B8B984710BDC046162310B50100188815
:1054A00002331B88984710BDF8B54746CE4680B5F5
:1054B0000F1E18D01423994604330400002501263A
:1054C00098464B461888434621681B88984701C474
:1054D000431E984101350640AF42F2D13000C0BCB6
:1054E000B946B046F8BD0126F8E7C046144A936FA6
:1054F0009B0815D29066D166002905D0FFE7FFE72B
:10550000FFE7516F106F704704B580210906C2177D
:105510005140002800D0C84304F05EF9002104BDCA
:10552000936F5B08FDD3F0B5946ED56E576F166F11
:10553000FFF7E0FF9466D56657671667F0BD000079
:10554000000000D0134A936F9B0813D21066516677
:10555000002905D0FFE7FFE7FFE7516F106F7047A5
:1055600004B5002801D00020C04304F035F9002123
:1055700004BDC046936F5B08FDD3F0B5946ED56E45
:10558000576F166FFFF7E2FF9466D5665767166789
:10559000F0BD0000000000D094464E4A926F920881
:1055A000624601D230E0C046F0B54A4EB56F6D0894
:1055B000FCD3346E756E776F366F00F025F8944625
:1055C000444A14665566576716676246F0BDC04682
:1055D0009446404A926F9208624601D258E0C04613
:1055E000F0B53C4EB56F6D08FCD3346E756E776FB9
:1055F000366F00F04DF89446364A14665566576784
:1056000016676246F0BDC046002B24DB11D000298E
:105610003EDA00B5C943404200D1013100F038F80C
:10562000C943404200D10131DB43524200D1013332
:1056300000BD002AEBD1002801D1002905D00020AF
:10564000C90FC90701D1C043410800B504F0BCF837
:105650000022002300BD00B500290ADBDB435242D3
:1056600000D1013300F014F8C943404200D10131A8
:1056700000BDC943404200D10131DB43524200D159
:10568000013300F005F8DB43524200D1013300BD85
:10569000002923D1002B18D1002A0CD0BC460D4F75
:1056A00038667A6600210023FFE7FFE7FFE77A6F9D
:1056B000386F67467047002801D00748010000B5E1
:1056C00004F082F80022002300BD02000B0000203D
:1056D00000217047000000D0FFFFFFFF002B00D02B
:1056E000BDE0130C26D1002AE7D080B4104F3966F4
:1056F0007A66FFE7FFE730B4040C7B6F396F1B0459
:1057000023433B66FFE7FFE7FFE7C04684B27B6FBA
:105710003D6F1B0423433B66FFE7FFE7C0460023C2
:105720002C042D0C7A6F386F00196941B0BC70479A
:10573000000000D0F0B594460025140E01D11202ED
:105740000835140F01D112010435940F01D19200D4
:105750000235D40F01D152000135D40B0134254F4D
:105760007C66254C3C660E0C93B2FFE7FFE7FFE733
:105770003C6F6643360C7703BE467343DF0B5B0416
:10578000C01AB941130C7343DB18C91ACE0866431B
:10579000360CB64493B273431F0F1B01C01AB941B4
:1057A000130C73431F0B1B05C01AB941860D8F02E2
:1057B0003E436643360C092D24DB520A7243801A9D
:1057C0007703460A6643360C16235B1BDE40DF4038
:1057D000BF1964466643821B7046043506330100D8
:1057E000D940A840C01900D30131A24206D20023FB
:1057F000F0BD0000000000D0FFFFFFFF121B0130D2
:10580000F3D3F1E709277F1BFE406446A2B272433F
:10581000801A00D20139220C7243130C1204821A2E
:1058200099410B007046043513370100F940A84038
:10583000801900D30131002B02D1A2420AD2F0BD5F
:10584000013000D30131121BFAD2013BF8D1A24240
:1058500000D2F0BD013000D30131121BF7E7F0B5E3
:105860001C0C00D080E00CB400251C0A04D11B02E3
:10587000160E3343120208351C0B04D11B01160F00
:105880003343120104359C0B04D19B00960F334324
:1058900092000235DC0B02D192185B4101351C00ED
:1058A000971864410134464F7C66464C3C660E0CAA
:1058B000FFE7FFE7FFE7C0463C6F6643360C770320
:1058C000BE4697B27743C01B00D20139C01B00D23D
:1058D00001399FB27743C91BC91B170C77437E045C
:1058E000FF0B801BB941CE086643360C0C2D33DB11
:1058F000B644120B1F053A431B0B97B27743C01BEC
:1059000000D201399FB27743C91B170C77433E047D
:105910003F0C801BB941860D8F023E436643292709
:105920007F1BFE400C3D7746AF40BF1930BCA2B292
:10593000ABB272437343801A9941220C7243130C29
:105940001204801A994102000B000137001BA94183
:10595000F9D2781E0021F0BD0C277F1BFE40774650
:105960007F0BAF40FF19E0E700245D1C07D0144F08
:105970007D663966FFE7FFE7FFE7FFE73C6F95B21B
:105980009EB265436643401BB141150C1E0C654336
:10599000664336042F0C3E432D04401BB14199420F
:1059A00004D202000B0020000021F0BD01D1904282
:1059B000F7D3801A994101349942F2D3F6E70000F7
:1059C000000000D0FFFFFFFF48404140484018B4AE
:1059D000114B5B68FC46019308BD04DF2F5C00108F
:1059E00018B40D4B1B68FC46019308BD00DF395C01
:1059F000001018B4084BDB68FC46019308BD0CDFAF
:105A0000F15E001018B4044B9B68FC46019308BD7E
:105A100008DF955D00100000C80A0020FFB5504067
:105A20004240504059404B40594000E0FFB5154FAF
:105A30004C00640D03D0BC4204D10C0314D80020E8
:105A4000090D09055C00640D03D0BC4204D11C03A0
:105A50000AD800221B0D1B0501264B4009D44B40E0
:105A600003D58B4200D18242FFBD9942FCD19042C6
:105A7000FFBD0B43DB1803431343F5D0C94349185B
:105A8000FFBD0000FF07000000B5FFF7CFFF80411A
:105A900000BDC04600B5FFF7C9FF01D9002000BD19
:105AA000012000BD00B5FFF7B9FF01D9002000BDFE
:105AB000012000BD00B5FFF7B1FF804100BD01200E
:105AC00040054A00121804D85A00121801D80020C4
:105AD0007047012070470020704700000021002817
